{
  "contractName": "DailyJournal",
  "abi": [
    {
      "inputs": [
        {
          "internalType": "uint256",
          "name": "_date",
          "type": "uint256"
        },
        {
          "internalType": "uint256",
          "name": "_startTime",
          "type": "uint256"
        },
        {
          "internalType": "uint256",
          "name": "_endTime",
          "type": "uint256"
        },
        {
          "internalType": "string",
          "name": "_description",
          "type": "string"
        }
      ],
      "stateMutability": "nonpayable",
      "type": "constructor"
    },
    {
      "anonymous": false,
      "inputs": [
        {
          "indexed": false,
          "internalType": "uint256",
          "name": "id",
          "type": "uint256"
        },
        {
          "indexed": false,
          "internalType": "uint256",
          "name": "date",
          "type": "uint256"
        },
        {
          "indexed": false,
          "internalType": "uint256",
          "name": "startTime",
          "type": "uint256"
        },
        {
          "indexed": false,
          "internalType": "uint256",
          "name": "endTime",
          "type": "uint256"
        },
        {
          "indexed": false,
          "internalType": "string",
          "name": "description",
          "type": "string"
        }
      ],
      "name": "EntryCreated",
      "type": "event"
    },
    {
      "anonymous": false,
      "inputs": [
        {
          "indexed": true,
          "internalType": "address",
          "name": "previousOwner",
          "type": "address"
        },
        {
          "indexed": true,
          "internalType": "address",
          "name": "newOwner",
          "type": "address"
        }
      ],
      "name": "OwnershipTransferred",
      "type": "event"
    },
    {
      "inputs": [
        {
          "internalType": "uint256",
          "name": "",
          "type": "uint256"
        }
      ],
      "name": "entries",
      "outputs": [
        {
          "internalType": "uint256",
          "name": "id",
          "type": "uint256"
        },
        {
          "internalType": "uint256",
          "name": "date",
          "type": "uint256"
        },
        {
          "internalType": "uint256",
          "name": "startTime",
          "type": "uint256"
        },
        {
          "internalType": "uint256",
          "name": "endTime",
          "type": "uint256"
        },
        {
          "internalType": "string",
          "name": "description",
          "type": "string"
        }
      ],
      "stateMutability": "view",
      "type": "function",
      "constant": true
    },
    {
      "inputs": [],
      "name": "entryCount",
      "outputs": [
        {
          "internalType": "uint256",
          "name": "",
          "type": "uint256"
        }
      ],
      "stateMutability": "view",
      "type": "function",
      "constant": true
    },
    {
      "inputs": [],
      "name": "name",
      "outputs": [
        {
          "internalType": "string",
          "name": "",
          "type": "string"
        }
      ],
      "stateMutability": "view",
      "type": "function",
      "constant": true
    },
    {
      "inputs": [],
      "name": "owner",
      "outputs": [
        {
          "internalType": "address",
          "name": "",
          "type": "address"
        }
      ],
      "stateMutability": "view",
      "type": "function",
      "constant": true
    },
    {
      "inputs": [],
      "name": "renounceOwnership",
      "outputs": [],
      "stateMutability": "nonpayable",
      "type": "function"
    },
    {
      "inputs": [
        {
          "internalType": "address",
          "name": "newOwner",
          "type": "address"
        }
      ],
      "name": "transferOwnership",
      "outputs": [],
      "stateMutability": "nonpayable",
      "type": "function"
    },
    {
      "inputs": [
        {
          "internalType": "uint256",
          "name": "_date",
          "type": "uint256"
        },
        {
          "internalType": "uint256",
          "name": "_startTime",
          "type": "uint256"
        },
        {
          "internalType": "uint256",
          "name": "_endTime",
          "type": "uint256"
        },
        {
          "internalType": "string",
          "name": "_description",
          "type": "string"
        }
      ],
      "name": "createEntry",
      "outputs": [],
      "stateMutability": "nonpayable",
      "type": "function"
    }
  ],
  "bytecode": "0x60806040526040518060400160405280601581526020017f47726567676073204461696c79204a6f75726e616c0000000000000000000000815250600190805190602001906200005192919062000409565b5060006002553480156200006457600080fd5b50604051620019343803806200193483398181016040528101906200008a919062000542565b620000aa6200009e620000c860201b60201c565b620000d060201b60201c565b620000be848484846200019460201b60201c565b5050505062000a32565b600033905090565b60008060009054906101000a900473ffffffffffffffffffffffffffffffffffffffff169050816000806101000a81548173ffffffffffffffffffffffffffffffffffffffff021916908373ffffffffffffffffffffffffffffffffffffffff1602179055508173ffffffffffffffffffffffffffffffffffffffff168173ffffffffffffffffffffffffffffffffffffffff167f8be0079c531659141344cd1fd0a4f28419497f9722a3daafe3b4186f6b6457e060405160405180910390a35050565b620001a4620000c860201b60201c565b73ffffffffffffffffffffffffffffffffffffffff16620001ca620003e060201b60201c565b73ffffffffffffffffffffffffffffffffffffffff161462000223576040517f08c379a00000000000000000000000000000000000000000000000000000000081526004016200021a906200078b565b60405180910390fd5b6000841162000269576040517f08c379a00000000000000000000000000000000000000000000000000000000081526004016200026090620007ad565b60405180910390fd5b60008311620002af576040517f08c379a0000000000000000000000000000000000000000000000000000000008152600401620002a69062000769565b60405180910390fd5b60008211620002f5576040517f08c379a0000000000000000000000000000000000000000000000000000000008152600401620002ec9062000747565b60405180910390fd5b600260008154809291906200030a906200092c565b91905055506040518060a001604052806002548152602001858152602001848152602001838152602001828152506003600060025481526020019081526020016000206000820151816000015560208201518160010155604082015181600201556060820151816003015560808201518160040190805190602001906200039392919062000409565b509050507fe160a949e6f595fd871aef4223f0465e58c9188d0cbb256d4241c63915e4dc7c60025485858585604051620003d2959493929190620007cf565b60405180910390a150505050565b60008060009054906101000a900473ffffffffffffffffffffffffffffffffffffffff16905090565b8280546200041790620008f6565b90600052602060002090601f0160209004810192826200043b576000855562000487565b82601f106200045657805160ff191683800117855562000487565b8280016001018555821562000487579182015b828111156200048657825182559160200191906001019062000469565b5b5090506200049691906200049a565b5090565b5b80821115620004b55760008160009055506001016200049b565b5090565b6000620004d0620004ca8462000867565b62000833565b905082815260208101848484011115620004e957600080fd5b620004f6848285620008c0565b509392505050565b600082601f8301126200051057600080fd5b815162000522848260208601620004b9565b91505092915050565b6000815190506200053c8162000a18565b92915050565b600080600080608085870312156200055957600080fd5b600062000569878288016200052b565b94505060206200057c878288016200052b565b93505060406200058f878288016200052b565b925050606085015167ffffffffffffffff811115620005ad57600080fd5b620005bb87828801620004fe565b91505092959194509250565b6000620005d4826200089a565b620005e08185620008a5565b9350620005f2818560208601620008c0565b620005fd8162000a07565b840191505092915050565b600062000617602083620008a5565b91507f4461696c794a6f75726e616c3a20656e6454696d65206973206e6f74203e20306000830152602082019050919050565b600062000659602283620008a5565b91507f4461696c794a6f75726e616c3a20737461727454696d65206973206e6f74203e60008301527f20300000000000000000000000000000000000000000000000000000000000006020830152604082019050919050565b6000620006c1602083620008a5565b91507f4f776e61626c653a2063616c6c6572206973206e6f7420746865206f776e65726000830152602082019050919050565b600062000703601d83620008a5565b91507f4461696c794a6f75726e616c3a2064617465206973206e6f74203e20300000006000830152602082019050919050565b6200074181620008b6565b82525050565b60006020820190508181036000830152620007628162000608565b9050919050565b6000602082019050818103600083015262000784816200064a565b9050919050565b60006020820190508181036000830152620007a681620006b2565b9050919050565b60006020820190508181036000830152620007c881620006f4565b9050919050565b600060a082019050620007e6600083018862000736565b620007f5602083018762000736565b62000804604083018662000736565b62000813606083018562000736565b8181036080830152620008278184620005c7565b90509695505050505050565b6000604051905081810181811067ffffffffffffffff821117156200085d576200085c620009d8565b5b8060405250919050565b600067ffffffffffffffff821115620008855762000884620009d8565b5b601f19601f8301169050602081019050919050565b600081519050919050565b600082825260208201905092915050565b6000819050919050565b60005b83811015620008e0578082015181840152602081019050620008c3565b83811115620008f0576000848401525b50505050565b600060028204905060018216806200090f57607f821691505b60208210811415620009265762000925620009a9565b5b50919050565b60006200093982620008b6565b91507fffffffffffffffffffffffffffffffffffffffffffffffffffffffffffffffff8214156200096f576200096e6200097a565b5b600182019050919050565b7f4e487b7100000000000000000000000000000000000000000000000000000000600052601160045260246000fd5b7f4e487b7100000000000000000000000000000000000000000000000000000000600052602260045260246000fd5b7f4e487b7100000000000000000000000000000000000000000000000000000000600052604160045260246000fd5b6000601f19601f8301169050919050565b62000a2381620008b6565b811462000a2f57600080fd5b50565b610ef28062000a426000396000f3fe608060405234801561001057600080fd5b506004361061007d5760003560e01c806377cade141161005b57806377cade14146100c85780638da5cb5b146100e4578063b30906d414610102578063f2fde38b146101365761007d565b806306fdde03146100825780630cbb0f83146100a0578063715018a6146100be575b600080fd5b61008a610152565b6040516100979190610b43565b60405180910390f35b6100a86101e0565b6040516100b59190610c05565b60405180910390f35b6100c66101e6565b005b6100e260048036038101906100dd91906108ca565b61026e565b005b6100ec610498565b6040516100f99190610b28565b60405180910390f35b61011c600480360381019061011791906108a1565b6104c1565b60405161012d959493929190610c20565b60405180910390f35b610150600480360381019061014b9190610878565b61057f565b005b6001805461015f90610d75565b80601f016020809104026020016040519081016040528092919081815260200182805461018b90610d75565b80156101d85780601f106101ad576101008083540402835291602001916101d8565b820191906000526020600020905b8154815290600101906020018083116101bb57829003601f168201915b505050505081565b60025481565b6101ee610677565b73ffffffffffffffffffffffffffffffffffffffff1661020c610498565b73ffffffffffffffffffffffffffffffffffffffff1614610262576040517f08c379a000000000000000000000000000000000000000000000000000000000815260040161025990610bc5565b60405180910390fd5b61026c600061067f565b565b610276610677565b73ffffffffffffffffffffffffffffffffffffffff16610294610498565b73ffffffffffffffffffffffffffffffffffffffff16146102ea576040517f08c379a00000000000000000000000000000000000000000000000000000000081526004016102e190610bc5565b60405180910390fd5b6000841161032d576040517f08c379a000000000000000000000000000000000000000000000000000000000815260040161032490610be5565b60405180910390fd5b60008311610370576040517f08c379a000000000000000000000000000000000000000000000000000000000815260040161036790610ba5565b60405180910390fd5b600082116103b3576040517f08c379a00000000000000000000000000000000000000000000000000000000081526004016103aa90610b85565b60405180910390fd5b600260008154809291906103c690610da7565b91905055506040518060a0016040528060025481526020018581526020018481526020018381526020018281525060036000600254815260200190815260200160002060008201518160000155602082015181600101556040820151816002015560608201518160030155608082015181600401908051906020019061044d929190610743565b509050507fe160a949e6f595fd871aef4223f0465e58c9188d0cbb256d4241c63915e4dc7c6002548585858560405161048a959493929190610c20565b60405180910390a150505050565b60008060009054906101000a900473ffffffffffffffffffffffffffffffffffffffff16905090565b60036020528060005260406000206000915090508060000154908060010154908060020154908060030154908060040180546104fc90610d75565b80601f016020809104026020016040519081016040528092919081815260200182805461052890610d75565b80156105755780601f1061054a57610100808354040283529160200191610575565b820191906000526020600020905b81548152906001019060200180831161055857829003601f168201915b5050505050905085565b610587610677565b73ffffffffffffffffffffffffffffffffffffffff166105a5610498565b73ffffffffffffffffffffffffffffffffffffffff16146105fb576040517f08c379a00000000000000000000000000000000000000000000000000000000081526004016105f290610bc5565b60405180910390fd5b600073ffffffffffffffffffffffffffffffffffffffff168173ffffffffffffffffffffffffffffffffffffffff16141561066b576040517f08c379a000000000000000000000000000000000000000000000000000000000815260040161066290610b65565b60405180910390fd5b6106748161067f565b50565b600033905090565b60008060009054906101000a900473ffffffffffffffffffffffffffffffffffffffff169050816000806101000a81548173ffffffffffffffffffffffffffffffffffffffff021916908373ffffffffffffffffffffffffffffffffffffffff1602179055508173ffffffffffffffffffffffffffffffffffffffff168173ffffffffffffffffffffffffffffffffffffffff167f8be0079c531659141344cd1fd0a4f28419497f9722a3daafe3b4186f6b6457e060405160405180910390a35050565b82805461074f90610d75565b90600052602060002090601f01602090048101928261077157600085556107b8565b82601f1061078a57805160ff19168380011785556107b8565b828001600101855582156107b8579182015b828111156107b757825182559160200191906001019061079c565b5b5090506107c591906107c9565b5090565b5b808211156107e25760008160009055506001016107ca565b5090565b60006107f96107f484610cab565b610c7a565b90508281526020810184848401111561081157600080fd5b61081c848285610d33565b509392505050565b60008135905061083381610e8e565b92915050565b600082601f83011261084a57600080fd5b813561085a8482602086016107e6565b91505092915050565b60008135905061087281610ea5565b92915050565b60006020828403121561088a57600080fd5b600061089884828501610824565b91505092915050565b6000602082840312156108b357600080fd5b60006108c184828501610863565b91505092915050565b600080600080608085870312156108e057600080fd5b60006108ee87828801610863565b94505060206108ff87828801610863565b935050604061091087828801610863565b925050606085013567ffffffffffffffff81111561092d57600080fd5b61093987828801610839565b91505092959194509250565b61094e81610cf7565b82525050565b600061095f82610cdb565b6109698185610ce6565b9350610979818560208601610d42565b61098281610e7d565b840191505092915050565b600061099a602683610ce6565b91507f4f776e61626c653a206e6577206f776e657220697320746865207a65726f206160008301527f64647265737300000000000000000000000000000000000000000000000000006020830152604082019050919050565b6000610a00602083610ce6565b91507f4461696c794a6f75726e616c3a20656e6454696d65206973206e6f74203e20306000830152602082019050919050565b6000610a40602283610ce6565b91507f4461696c794a6f75726e616c3a20737461727454696d65206973206e6f74203e60008301527f20300000000000000000000000000000000000000000000000000000000000006020830152604082019050919050565b6000610aa6602083610ce6565b91507f4f776e61626c653a2063616c6c6572206973206e6f7420746865206f776e65726000830152602082019050919050565b6000610ae6601d83610ce6565b91507f4461696c794a6f75726e616c3a2064617465206973206e6f74203e20300000006000830152602082019050919050565b610b2281610d29565b82525050565b6000602082019050610b3d6000830184610945565b92915050565b60006020820190508181036000830152610b5d8184610954565b905092915050565b60006020820190508181036000830152610b7e8161098d565b9050919050565b60006020820190508181036000830152610b9e816109f3565b9050919050565b60006020820190508181036000830152610bbe81610a33565b9050919050565b60006020820190508181036000830152610bde81610a99565b9050919050565b60006020820190508181036000830152610bfe81610ad9565b9050919050565b6000602082019050610c1a6000830184610b19565b92915050565b600060a082019050610c356000830188610b19565b610c426020830187610b19565b610c4f6040830186610b19565b610c5c6060830185610b19565b8181036080830152610c6e8184610954565b90509695505050505050565b6000604051905081810181811067ffffffffffffffff82111715610ca157610ca0610e4e565b5b8060405250919050565b600067ffffffffffffffff821115610cc657610cc5610e4e565b5b601f19601f8301169050602081019050919050565b600081519050919050565b600082825260208201905092915050565b6000610d0282610d09565b9050919050565b600073ffffffffffffffffffffffffffffffffffffffff82169050919050565b6000819050919050565b82818337600083830152505050565b60005b83811015610d60578082015181840152602081019050610d45565b83811115610d6f576000848401525b50505050565b60006002820490506001821680610d8d57607f821691505b60208210811415610da157610da0610e1f565b5b50919050565b6000610db282610d29565b91507fffffffffffffffffffffffffffffffffffffffffffffffffffffffffffffffff821415610de557610de4610df0565b5b600182019050919050565b7f4e487b7100000000000000000000000000000000000000000000000000000000600052601160045260246000fd5b7f4e487b7100000000000000000000000000000000000000000000000000000000600052602260045260246000fd5b7f4e487b7100000000000000000000000000000000000000000000000000000000600052604160045260246000fd5b6000601f19601f8301169050919050565b610e9781610cf7565b8114610ea257600080fd5b50565b610eae81610d29565b8114610eb957600080fd5b5056fea2646970667358221220c390a542417e0a31e5f7d29946ce353e9bc4c0b62fd5c1bf40beb3e67b90a8a964736f6c63430008000033",
  "immutableReferences": {},
  "source": "// SPDX-License-Identifier: MIT\r\npragma solidity 0.8.0;\r\n\r\nimport '@openzeppelin/contracts/access/Ownable.sol';\r\n\r\ncontract DailyJournal is Ownable {\r\n  string public name = \"Gregg`s Daily Journal\";\r\n  uint256 public entryCount = 0;\r\n  mapping(uint => Entry) public entries;\r\n\r\n  struct Entry {\r\n    uint256 id;\r\n    uint256 date;\r\n    uint256 startTime;\r\n    uint256 endTime;\r\n    string description;\r\n  }\r\n\r\n  event EntryCreated(uint256 id, uint256 date, uint256 startTime, uint256 endTime, string description);\r\n\r\n  constructor(uint256 _date, uint256 _startTime, uint256 _endTime, string memory _description) {\r\n    createEntry(_date, _startTime, _endTime, _description);\r\n  }\r\n\r\n  function createEntry(uint256 _date, uint256 _startTime, uint256 _endTime, string memory _description) public onlyOwner() {\r\n    require(_date > 0, 'DailyJournal: date is not > 0');\r\n    require(_startTime > 0, 'DailyJournal: startTime is not > 0');\r\n    require(_endTime > 0, 'DailyJournal: endTime is not > 0');\r\n    //require(!_description == '', 'DailyJournal: date is not > 0');\r\n\r\n    entryCount++;\r\n    entries[entryCount] = Entry(entryCount, _date, _startTime, _endTime, _description);\r\n    emit EntryCreated(entryCount, _date, _startTime, _endTime, _description);\r\n  }\r\n\r\n}",
  "sourcePath": "C:\\Users\\Gregg\\OneDrive\\Projects\\Personal Projects\\Daily Journal\\src\\contracts\\DailyJournal.sol",
  "compiler": {
    "name": "solc",
    "version": "0.8.0+commit.c7dfd78e.Emscripten.clang"
  },
  "schemaVersion": "3.4.4",
  "updatedAt": "2022-02-08T23:58:31.030Z",
  "networkType": "ethereum",
  "devdoc": {
    "kind": "dev",
    "methods": {
      "owner()": {
        "details": "Returns the address of the current owner."
      },
      "renounceOwnership()": {
        "details": "Leaves the contract without owner. It will not be possible to call `onlyOwner` functions anymore. Can only be called by the current owner. NOTE: Renouncing ownership will leave the contract without an owner, thereby removing any functionality that is only available to the owner."
      },
      "transferOwnership(address)": {
        "details": "Transfers ownership of the contract to a new account (`newOwner`). Can only be called by the current owner."
      }
    },
    "version": 1
  },
  "userdoc": {
    "kind": "user",
    "methods": {},
    "version": 1
  }
}