{
  "contractName": "DailyJournal",
  "abi": [
    {
      "inputs": [
        {
          "internalType": "string",
          "name": "_day",
          "type": "string"
        },
        {
          "internalType": "string",
          "name": "_date",
          "type": "string"
        },
        {
          "internalType": "string",
          "name": "_breakfast",
          "type": "string"
        },
        {
          "internalType": "string",
          "name": "_lunch",
          "type": "string"
        },
        {
          "internalType": "string",
          "name": "_dinner",
          "type": "string"
        },
        {
          "internalType": "string",
          "name": "_meditation",
          "type": "string"
        }
      ],
      "stateMutability": "nonpayable",
      "type": "constructor"
    },
    {
      "anonymous": false,
      "inputs": [
        {
          "indexed": false,
          "internalType": "uint256",
          "name": "id",
          "type": "uint256"
        },
        {
          "indexed": false,
          "internalType": "string",
          "name": "day",
          "type": "string"
        },
        {
          "indexed": false,
          "internalType": "string",
          "name": "date",
          "type": "string"
        },
        {
          "indexed": false,
          "internalType": "string",
          "name": "breakfast",
          "type": "string"
        },
        {
          "indexed": false,
          "internalType": "string",
          "name": "lunch",
          "type": "string"
        },
        {
          "indexed": false,
          "internalType": "string",
          "name": "dinner",
          "type": "string"
        },
        {
          "indexed": false,
          "internalType": "string",
          "name": "meditation",
          "type": "string"
        }
      ],
      "name": "EntryCreated",
      "type": "event"
    },
    {
      "anonymous": false,
      "inputs": [
        {
          "indexed": true,
          "internalType": "address",
          "name": "previousOwner",
          "type": "address"
        },
        {
          "indexed": true,
          "internalType": "address",
          "name": "newOwner",
          "type": "address"
        }
      ],
      "name": "OwnershipTransferred",
      "type": "event"
    },
    {
      "inputs": [
        {
          "internalType": "uint256",
          "name": "",
          "type": "uint256"
        }
      ],
      "name": "entries",
      "outputs": [
        {
          "internalType": "uint256",
          "name": "id",
          "type": "uint256"
        },
        {
          "internalType": "string",
          "name": "day",
          "type": "string"
        },
        {
          "internalType": "string",
          "name": "date",
          "type": "string"
        },
        {
          "internalType": "string",
          "name": "breakfast",
          "type": "string"
        },
        {
          "internalType": "string",
          "name": "lunch",
          "type": "string"
        },
        {
          "internalType": "string",
          "name": "dinner",
          "type": "string"
        },
        {
          "internalType": "string",
          "name": "meditation",
          "type": "string"
        }
      ],
      "stateMutability": "view",
      "type": "function",
      "constant": true
    },
    {
      "inputs": [],
      "name": "entryCount",
      "outputs": [
        {
          "internalType": "uint256",
          "name": "",
          "type": "uint256"
        }
      ],
      "stateMutability": "view",
      "type": "function",
      "constant": true
    },
    {
      "inputs": [],
      "name": "name",
      "outputs": [
        {
          "internalType": "string",
          "name": "",
          "type": "string"
        }
      ],
      "stateMutability": "view",
      "type": "function",
      "constant": true
    },
    {
      "inputs": [],
      "name": "owner",
      "outputs": [
        {
          "internalType": "address",
          "name": "",
          "type": "address"
        }
      ],
      "stateMutability": "view",
      "type": "function",
      "constant": true
    },
    {
      "inputs": [],
      "name": "renounceOwnership",
      "outputs": [],
      "stateMutability": "nonpayable",
      "type": "function"
    },
    {
      "inputs": [
        {
          "internalType": "address",
          "name": "newOwner",
          "type": "address"
        }
      ],
      "name": "transferOwnership",
      "outputs": [],
      "stateMutability": "nonpayable",
      "type": "function"
    },
    {
      "inputs": [
        {
          "internalType": "string",
          "name": "_day",
          "type": "string"
        },
        {
          "internalType": "string",
          "name": "_date",
          "type": "string"
        },
        {
          "internalType": "string",
          "name": "_breakfast",
          "type": "string"
        },
        {
          "internalType": "string",
          "name": "_lunch",
          "type": "string"
        },
        {
          "internalType": "string",
          "name": "_dinner",
          "type": "string"
        },
        {
          "internalType": "string",
          "name": "_meditation",
          "type": "string"
        }
      ],
      "name": "createEntry",
      "outputs": [],
      "stateMutability": "nonpayable",
      "type": "function"
    }
  ],
  "bytecode": "0x60806040526040518060400160405280601581526020017f47726567676073204461696c79204a6f75726e616c0000000000000000000000815250600190805190602001906200005192919062000458565b5060006002553480156200006457600080fd5b5060405162001d9b38038062001d9b83398181016040528101906200008a91906200057a565b620000aa6200009e620000cc60201b60201c565b620000d460201b60201c565b620000c08686868686866200019860201b60201c565b50505050505062000afc565b600033905090565b60008060009054906101000a900473ffffffffffffffffffffffffffffffffffffffff169050816000806101000a81548173ffffffffffffffffffffffffffffffffffffffff021916908373ffffffffffffffffffffffffffffffffffffffff1602179055508173ffffffffffffffffffffffffffffffffffffffff168173ffffffffffffffffffffffffffffffffffffffff167f8be0079c531659141344cd1fd0a4f28419497f9722a3daafe3b4186f6b6457e060405160405180910390a35050565b620001a8620000cc60201b60201c565b73ffffffffffffffffffffffffffffffffffffffff16620001ce6200042f60201b60201c565b73ffffffffffffffffffffffffffffffffffffffff161462000227576040517f08c379a00000000000000000000000000000000000000000000000000000000081526004016200021e906200080a565b60405180910390fd5b60008651116200026e576040517f08c379a000000000000000000000000000000000000000000000000000000000815260040162000265906200084e565b60405180910390fd5b6000855111620002b5576040517f08c379a0000000000000000000000000000000000000000000000000000000008152600401620002ac906200082c565b60405180910390fd5b60026000815480929190620002ca9062000a10565b91905055506040518060e001604052806002548152602001878152602001868152602001858152602001848152602001838152602001828152506003600060025481526020019081526020016000206000820151816000015560208201518160010190805190602001906200034192919062000458565b5060408201518160020190805190602001906200036092919062000458565b5060608201518160030190805190602001906200037f92919062000458565b5060808201518160040190805190602001906200039e92919062000458565b5060a0820151816005019080519060200190620003bd92919062000458565b5060c0820151816006019080519060200190620003dc92919062000458565b509050507f95ce4b2c4338741d4541edd1b50f7ec76a089a4f9d525ddcd67d05442448df686002548787878787876040516200041f979695949392919062000870565b60405180910390a1505050505050565b60008060009054906101000a900473ffffffffffffffffffffffffffffffffffffffff16905090565b8280546200046690620009da565b90600052602060002090601f0160209004810192826200048a5760008555620004d6565b82601f10620004a557805160ff1916838001178555620004d6565b82800160010185558215620004d6579182015b82811115620004d5578251825591602001919060010190620004b8565b5b509050620004e59190620004e9565b5090565b5b8082111562000504576000816000905550600101620004ea565b5090565b60006200051f62000519846200094b565b62000917565b9050828152602081018484840111156200053857600080fd5b62000545848285620009a4565b509392505050565b600082601f8301126200055f57600080fd5b81516200057184826020860162000508565b91505092915050565b60008060008060008060c087890312156200059457600080fd5b600087015167ffffffffffffffff811115620005af57600080fd5b620005bd89828a016200054d565b965050602087015167ffffffffffffffff811115620005db57600080fd5b620005e989828a016200054d565b955050604087015167ffffffffffffffff8111156200060757600080fd5b6200061589828a016200054d565b945050606087015167ffffffffffffffff8111156200063357600080fd5b6200064189828a016200054d565b935050608087015167ffffffffffffffff8111156200065f57600080fd5b6200066d89828a016200054d565b92505060a087015167ffffffffffffffff8111156200068b57600080fd5b6200069989828a016200054d565b9150509295509295509295565b6000620006b3826200097e565b620006bf818562000989565b9350620006d1818560208601620009a4565b620006dc8162000aeb565b840191505092915050565b6000620006f660208362000989565b91507f4f776e61626c653a2063616c6c6572206973206e6f7420746865206f776e65726000830152602082019050919050565b60006200073860228362000989565b91507f4461696c794a6f75726e616c3a206461746520697320656d707479207374726960008301527f6e670000000000000000000000000000000000000000000000000000000000006020830152604082019050919050565b6000620007a060218362000989565b91507f4461696c794a6f75726e616c3a2064617920697320656d70747920737472696e60008301527f67000000000000000000000000000000000000000000000000000000000000006020830152604082019050919050565b62000804816200099a565b82525050565b600060208201905081810360008301526200082581620006e7565b9050919050565b60006020820190508181036000830152620008478162000729565b9050919050565b60006020820190508181036000830152620008698162000791565b9050919050565b600060e08201905062000887600083018a620007f9565b81810360208301526200089b8189620006a6565b90508181036040830152620008b18188620006a6565b90508181036060830152620008c78187620006a6565b90508181036080830152620008dd8186620006a6565b905081810360a0830152620008f38185620006a6565b905081810360c0830152620009098184620006a6565b905098975050505050505050565b6000604051905081810181811067ffffffffffffffff8211171562000941576200094062000abc565b5b8060405250919050565b600067ffffffffffffffff82111562000969576200096862000abc565b5b601f19601f8301169050602081019050919050565b600081519050919050565b600082825260208201905092915050565b6000819050919050565b60005b83811015620009c4578082015181840152602081019050620009a7565b83811115620009d4576000848401525b50505050565b60006002820490506001821680620009f357607f821691505b6020821081141562000a0a5762000a0962000a8d565b5b50919050565b600062000a1d826200099a565b91507fffffffffffffffffffffffffffffffffffffffffffffffffffffffffffffffff82141562000a535762000a5262000a5e565b5b600182019050919050565b7f4e487b7100000000000000000000000000000000000000000000000000000000600052601160045260246000fd5b7f4e487b7100000000000000000000000000000000000000000000000000000000600052602260045260246000fd5b7f4e487b7100000000000000000000000000000000000000000000000000000000600052604160045260246000fd5b6000601f19601f8301169050919050565b61128f8062000b0c6000396000f3fe608060405234801561001057600080fd5b506004361061007d5760003560e01c8063715018a61161005b578063715018a6146100da5780638da5cb5b146100e4578063b30906d414610102578063f2fde38b146101385761007d565b806306fdde03146100825780630cbb0f83146100a057806329a9857e146100be575b600080fd5b61008a610154565b6040516100979190610ec1565b60405180910390f35b6100a86101e2565b6040516100b59190610f63565b60405180910390f35b6100d860048036038101906100d39190610b9b565b6101e8565b005b6100e2610456565b005b6100ec6104de565b6040516100f99190610ea6565b60405180910390f35b61011c60048036038101906101179190610cb4565b610507565b60405161012f9796959493929190610f7e565b60405180910390f35b610152600480360381019061014d9190610b72565b610879565b005b6001805461016190611112565b80601f016020809104026020016040519081016040528092919081815260200182805461018d90611112565b80156101da5780601f106101af576101008083540402835291602001916101da565b820191906000526020600020905b8154815290600101906020018083116101bd57829003601f168201915b505050505081565b60025481565b6101f0610971565b73ffffffffffffffffffffffffffffffffffffffff1661020e6104de565b73ffffffffffffffffffffffffffffffffffffffff1614610264576040517f08c379a000000000000000000000000000000000000000000000000000000000815260040161025b90610f03565b60405180910390fd5b60008651116102a8576040517f08c379a000000000000000000000000000000000000000000000000000000000815260040161029f90610f43565b60405180910390fd5b60008551116102ec576040517f08c379a00000000000000000000000000000000000000000000000000000000081526004016102e390610f23565b60405180910390fd5b600260008154809291906102ff90611144565b91905055506040518060e00160405280600254815260200187815260200186815260200185815260200184815260200183815260200182815250600360006002548152602001908152602001600020600082015181600001556020820151816001019080519060200190610374929190610a3d565b506040820151816002019080519060200190610391929190610a3d565b5060608201518160030190805190602001906103ae929190610a3d565b5060808201518160040190805190602001906103cb929190610a3d565b5060a08201518160050190805190602001906103e8929190610a3d565b5060c0820151816006019080519060200190610405929190610a3d565b509050507f95ce4b2c4338741d4541edd1b50f7ec76a089a4f9d525ddcd67d05442448df686002548787878787876040516104469796959493929190610f7e565b60405180910390a1505050505050565b61045e610971565b73ffffffffffffffffffffffffffffffffffffffff1661047c6104de565b73ffffffffffffffffffffffffffffffffffffffff16146104d2576040517f08c379a00000000000000000000000000000000000000000000000000000000081526004016104c990610f03565b60405180910390fd5b6104dc6000610979565b565b60008060009054906101000a900473ffffffffffffffffffffffffffffffffffffffff16905090565b600360205280600052604060002060009150905080600001549080600101805461053090611112565b80601f016020809104026020016040519081016040528092919081815260200182805461055c90611112565b80156105a95780601f1061057e576101008083540402835291602001916105a9565b820191906000526020600020905b81548152906001019060200180831161058c57829003601f168201915b5050505050908060020180546105be90611112565b80601f01602080910402602001604051908101604052809291908181526020018280546105ea90611112565b80156106375780601f1061060c57610100808354040283529160200191610637565b820191906000526020600020905b81548152906001019060200180831161061a57829003601f168201915b50505050509080600301805461064c90611112565b80601f016020809104026020016040519081016040528092919081815260200182805461067890611112565b80156106c55780601f1061069a576101008083540402835291602001916106c5565b820191906000526020600020905b8154815290600101906020018083116106a857829003601f168201915b5050505050908060040180546106da90611112565b80601f016020809104026020016040519081016040528092919081815260200182805461070690611112565b80156107535780601f1061072857610100808354040283529160200191610753565b820191906000526020600020905b81548152906001019060200180831161073657829003601f168201915b50505050509080600501805461076890611112565b80601f016020809104026020016040519081016040528092919081815260200182805461079490611112565b80156107e15780601f106107b6576101008083540402835291602001916107e1565b820191906000526020600020905b8154815290600101906020018083116107c457829003601f168201915b5050505050908060060180546107f690611112565b80601f016020809104026020016040519081016040528092919081815260200182805461082290611112565b801561086f5780601f106108445761010080835404028352916020019161086f565b820191906000526020600020905b81548152906001019060200180831161085257829003601f168201915b5050505050905087565b610881610971565b73ffffffffffffffffffffffffffffffffffffffff1661089f6104de565b73ffffffffffffffffffffffffffffffffffffffff16146108f5576040517f08c379a00000000000000000000000000000000000000000000000000000000081526004016108ec90610f03565b60405180910390fd5b600073ffffffffffffffffffffffffffffffffffffffff168173ffffffffffffffffffffffffffffffffffffffff161415610965576040517f08c379a000000000000000000000000000000000000000000000000000000000815260040161095c90610ee3565b60405180910390fd5b61096e81610979565b50565b600033905090565b60008060009054906101000a900473ffffffffffffffffffffffffffffffffffffffff169050816000806101000a81548173ffffffffffffffffffffffffffffffffffffffff021916908373ffffffffffffffffffffffffffffffffffffffff1602179055508173ffffffffffffffffffffffffffffffffffffffff168173ffffffffffffffffffffffffffffffffffffffff167f8be0079c531659141344cd1fd0a4f28419497f9722a3daafe3b4186f6b6457e060405160405180910390a35050565b828054610a4990611112565b90600052602060002090601f016020900481019282610a6b5760008555610ab2565b82601f10610a8457805160ff1916838001178555610ab2565b82800160010185558215610ab2579182015b82811115610ab1578251825591602001919060010190610a96565b5b509050610abf9190610ac3565b5090565b5b80821115610adc576000816000905550600101610ac4565b5090565b6000610af3610aee84611048565b611017565b905082815260208101848484011115610b0b57600080fd5b610b168482856110d0565b509392505050565b600081359050610b2d8161122b565b92915050565b600082601f830112610b4457600080fd5b8135610b54848260208601610ae0565b91505092915050565b600081359050610b6c81611242565b92915050565b600060208284031215610b8457600080fd5b6000610b9284828501610b1e565b91505092915050565b60008060008060008060c08789031215610bb457600080fd5b600087013567ffffffffffffffff811115610bce57600080fd5b610bda89828a01610b33565b965050602087013567ffffffffffffffff811115610bf757600080fd5b610c0389828a01610b33565b955050604087013567ffffffffffffffff811115610c2057600080fd5b610c2c89828a01610b33565b945050606087013567ffffffffffffffff811115610c4957600080fd5b610c5589828a01610b33565b935050608087013567ffffffffffffffff811115610c7257600080fd5b610c7e89828a01610b33565b92505060a087013567ffffffffffffffff811115610c9b57600080fd5b610ca789828a01610b33565b9150509295509295509295565b600060208284031215610cc657600080fd5b6000610cd484828501610b5d565b91505092915050565b610ce681611094565b82525050565b6000610cf782611078565b610d018185611083565b9350610d118185602086016110df565b610d1a8161121a565b840191505092915050565b6000610d32602683611083565b91507f4f776e61626c653a206e6577206f776e657220697320746865207a65726f206160008301527f64647265737300000000000000000000000000000000000000000000000000006020830152604082019050919050565b6000610d98602083611083565b91507f4f776e61626c653a2063616c6c6572206973206e6f7420746865206f776e65726000830152602082019050919050565b6000610dd8602283611083565b91507f4461696c794a6f75726e616c3a206461746520697320656d707479207374726960008301527f6e670000000000000000000000000000000000000000000000000000000000006020830152604082019050919050565b6000610e3e602183611083565b91507f4461696c794a6f75726e616c3a2064617920697320656d70747920737472696e60008301527f67000000000000000000000000000000000000000000000000000000000000006020830152604082019050919050565b610ea0816110c6565b82525050565b6000602082019050610ebb6000830184610cdd565b92915050565b60006020820190508181036000830152610edb8184610cec565b905092915050565b60006020820190508181036000830152610efc81610d25565b9050919050565b60006020820190508181036000830152610f1c81610d8b565b9050919050565b60006020820190508181036000830152610f3c81610dcb565b9050919050565b60006020820190508181036000830152610f5c81610e31565b9050919050565b6000602082019050610f786000830184610e97565b92915050565b600060e082019050610f93600083018a610e97565b8181036020830152610fa58189610cec565b90508181036040830152610fb98188610cec565b90508181036060830152610fcd8187610cec565b90508181036080830152610fe18186610cec565b905081810360a0830152610ff58185610cec565b905081810360c08301526110098184610cec565b905098975050505050505050565b6000604051905081810181811067ffffffffffffffff8211171561103e5761103d6111eb565b5b8060405250919050565b600067ffffffffffffffff821115611063576110626111eb565b5b601f19601f8301169050602081019050919050565b600081519050919050565b600082825260208201905092915050565b600061109f826110a6565b9050919050565b600073ffffffffffffffffffffffffffffffffffffffff82169050919050565b6000819050919050565b82818337600083830152505050565b60005b838110156110fd5780820151818401526020810190506110e2565b8381111561110c576000848401525b50505050565b6000600282049050600182168061112a57607f821691505b6020821081141561113e5761113d6111bc565b5b50919050565b600061114f826110c6565b91507fffffffffffffffffffffffffffffffffffffffffffffffffffffffffffffffff8214156111825761118161118d565b5b600182019050919050565b7f4e487b7100000000000000000000000000000000000000000000000000000000600052601160045260246000fd5b7f4e487b7100000000000000000000000000000000000000000000000000000000600052602260045260246000fd5b7f4e487b7100000000000000000000000000000000000000000000000000000000600052604160045260246000fd5b6000601f19601f8301169050919050565b61123481611094565b811461123f57600080fd5b50565b61124b816110c6565b811461125657600080fd5b5056fea26469706673582212204365d1000e3464b08d38fd9aae27deec170fe2d25f783f4c6ff62f304beca13964736f6c63430008000033",
  "immutableReferences": {},
  "source": "// SPDX-License-Identifier: MIT\r\npragma solidity 0.8.0;\r\n\r\nimport '@openzeppelin/contracts/access/Ownable.sol';\r\n\r\ncontract DailyJournal is Ownable {\r\n  string public name = \"Gregg`s Daily Journal\";\r\n  uint256 public entryCount = 0;\r\n  mapping(uint => Entry) public entries;\r\n\r\n  // struct Task {\r\n  //   string startTime;\r\n  //   string endTime;\r\n  //   string[] description;\r\n  // }\r\n\r\n  struct Entry {\r\n    uint256 id;\r\n    string day;\r\n    string date;\r\n    string breakfast;\r\n    string lunch;\r\n    string dinner;\r\n    string meditation;\r\n    //Task[] tasks;\r\n  }\r\n\r\n  event EntryCreated(\r\n    uint256 id, \r\n    string day,\r\n    string date, \r\n    string breakfast,\r\n    string lunch,\r\n    string dinner,\r\n    string meditation\r\n    //Task[] tasks\r\n  );\r\n\r\n  constructor(\r\n    string memory _day,\r\n    string memory _date, \r\n    string memory _breakfast,\r\n    string memory _lunch,\r\n    string memory _dinner,\r\n    string memory _meditation\r\n    //Task[] memory _tasks\r\n  ) {\r\n    createEntry(_day, _date, _breakfast, _lunch, _dinner, _meditation);\r\n  }\r\n\r\n  function createEntry(\r\n    string memory _day,\r\n    string memory _date, \r\n    string memory _breakfast,\r\n    string memory _lunch,\r\n    string memory _dinner,\r\n    string memory _meditation\r\n    //Task[] memory _tasks\r\n  ) public onlyOwner() {\r\n\r\n    require(bytes(_day).length > 0, 'DailyJournal: day is empty string');\r\n    require(bytes(_date).length > 0, 'DailyJournal: date is empty string');\r\n    //require(bytes(_tasks.startTime).length > 0, 'DailyJournal: startTime is empty string');\r\n    //require(bytes(_tasks.endTime).length > 0, 'DailyJournal: endTime is empty string');\r\n    //require(bytes(_tasks._description).length > 0, 'DailyJournal: date is empty string');\r\n\r\n    entryCount++;\r\n    entries[entryCount] = Entry(entryCount, _day, _date, _breakfast, _lunch, _dinner, _meditation);\r\n    emit EntryCreated(entryCount, _day, _date, _breakfast, _lunch, _dinner, _meditation);\r\n  }\r\n\r\n}",
  "sourcePath": "C:\\Users\\Gregg\\OneDrive\\Projects\\Personal Projects\\Daily Journal\\src\\contracts\\DailyJournal.sol",
  "compiler": {
    "name": "solc",
    "version": "0.8.0+commit.c7dfd78e.Emscripten.clang"
  },
  "schemaVersion": "3.4.4",
  "updatedAt": "2022-02-10T00:42:27.891Z",
  "networkType": "ethereum",
  "devdoc": {
    "kind": "dev",
    "methods": {
      "owner()": {
        "details": "Returns the address of the current owner."
      },
      "renounceOwnership()": {
        "details": "Leaves the contract without owner. It will not be possible to call `onlyOwner` functions anymore. Can only be called by the current owner. NOTE: Renouncing ownership will leave the contract without an owner, thereby removing any functionality that is only available to the owner."
      },
      "transferOwnership(address)": {
        "details": "Transfers ownership of the contract to a new account (`newOwner`). Can only be called by the current owner."
      }
    },
    "version": 1
  },
  "userdoc": {
    "kind": "user",
    "methods": {},
    "version": 1
  }
}