{
  "contractName": "DailyJournal",
  "abi": [
    {
      "inputs": [
        {
          "internalType": "string",
          "name": "_date",
          "type": "string"
        },
        {
          "internalType": "string",
          "name": "_startTime",
          "type": "string"
        },
        {
          "internalType": "string",
          "name": "_endTime",
          "type": "string"
        },
        {
          "internalType": "string",
          "name": "_description",
          "type": "string"
        }
      ],
      "stateMutability": "nonpayable",
      "type": "constructor"
    },
    {
      "anonymous": false,
      "inputs": [
        {
          "indexed": false,
          "internalType": "uint256",
          "name": "id",
          "type": "uint256"
        },
        {
          "indexed": false,
          "internalType": "string",
          "name": "date",
          "type": "string"
        },
        {
          "indexed": false,
          "internalType": "string",
          "name": "startTime",
          "type": "string"
        },
        {
          "indexed": false,
          "internalType": "string",
          "name": "endTime",
          "type": "string"
        },
        {
          "indexed": false,
          "internalType": "string",
          "name": "description",
          "type": "string"
        }
      ],
      "name": "EntryCreated",
      "type": "event"
    },
    {
      "anonymous": false,
      "inputs": [
        {
          "indexed": true,
          "internalType": "address",
          "name": "previousOwner",
          "type": "address"
        },
        {
          "indexed": true,
          "internalType": "address",
          "name": "newOwner",
          "type": "address"
        }
      ],
      "name": "OwnershipTransferred",
      "type": "event"
    },
    {
      "inputs": [
        {
          "internalType": "uint256",
          "name": "",
          "type": "uint256"
        }
      ],
      "name": "entries",
      "outputs": [
        {
          "internalType": "uint256",
          "name": "id",
          "type": "uint256"
        },
        {
          "internalType": "string",
          "name": "date",
          "type": "string"
        },
        {
          "internalType": "string",
          "name": "startTime",
          "type": "string"
        },
        {
          "internalType": "string",
          "name": "endTime",
          "type": "string"
        },
        {
          "internalType": "string",
          "name": "description",
          "type": "string"
        }
      ],
      "stateMutability": "view",
      "type": "function",
      "constant": true
    },
    {
      "inputs": [],
      "name": "entryCount",
      "outputs": [
        {
          "internalType": "uint256",
          "name": "",
          "type": "uint256"
        }
      ],
      "stateMutability": "view",
      "type": "function",
      "constant": true
    },
    {
      "inputs": [],
      "name": "name",
      "outputs": [
        {
          "internalType": "string",
          "name": "",
          "type": "string"
        }
      ],
      "stateMutability": "view",
      "type": "function",
      "constant": true
    },
    {
      "inputs": [],
      "name": "owner",
      "outputs": [
        {
          "internalType": "address",
          "name": "",
          "type": "address"
        }
      ],
      "stateMutability": "view",
      "type": "function",
      "constant": true
    },
    {
      "inputs": [],
      "name": "renounceOwnership",
      "outputs": [],
      "stateMutability": "nonpayable",
      "type": "function"
    },
    {
      "inputs": [
        {
          "internalType": "address",
          "name": "newOwner",
          "type": "address"
        }
      ],
      "name": "transferOwnership",
      "outputs": [],
      "stateMutability": "nonpayable",
      "type": "function"
    },
    {
      "inputs": [
        {
          "internalType": "string",
          "name": "_date",
          "type": "string"
        },
        {
          "internalType": "string",
          "name": "_startTime",
          "type": "string"
        },
        {
          "internalType": "string",
          "name": "_endTime",
          "type": "string"
        },
        {
          "internalType": "string",
          "name": "_description",
          "type": "string"
        }
      ],
      "name": "createEntry",
      "outputs": [],
      "stateMutability": "nonpayable",
      "type": "function"
    }
  ],
  "bytecode": "0x60806040526040518060400160405280601581526020017f47726567676073204461696c79204a6f75726e616c0000000000000000000000815250600190805190602001906200005192919062000492565b5060006002553480156200006457600080fd5b5060405162001cf938038062001cf983398181016040528101906200008a9190620005b4565b620000aa6200009e620000c860201b60201c565b620000d060201b60201c565b620000be848484846200019460201b60201c565b5050505062000b36565b600033905090565b60008060009054906101000a900473ffffffffffffffffffffffffffffffffffffffff169050816000806101000a81548173ffffffffffffffffffffffffffffffffffffffff021916908373ffffffffffffffffffffffffffffffffffffffff1602179055508173ffffffffffffffffffffffffffffffffffffffff168173ffffffffffffffffffffffffffffffffffffffff167f8be0079c531659141344cd1fd0a4f28419497f9722a3daafe3b4186f6b6457e060405160405180910390a35050565b620001a4620000c860201b60201c565b73ffffffffffffffffffffffffffffffffffffffff16620001ca6200046960201b60201c565b73ffffffffffffffffffffffffffffffffffffffff161462000223576040517f08c379a00000000000000000000000000000000000000000000000000000000081526004016200021a9062000894565b60405180910390fd5b60008451116200026a576040517f08c379a00000000000000000000000000000000000000000000000000000000081526004016200026190620008b6565b60405180910390fd5b6000835111620002b1576040517f08c379a0000000000000000000000000000000000000000000000000000000008152600401620002a89062000850565b60405180910390fd5b6000825111620002f8576040517f08c379a0000000000000000000000000000000000000000000000000000000008152600401620002ef9062000872565b60405180910390fd5b60008151116200033f576040517f08c379a00000000000000000000000000000000000000000000000000000000081526004016200033690620008b6565b60405180910390fd5b60026000815480929190620003549062000a4a565b91905055506040518060a00160405280600254815260200185815260200184815260200183815260200182815250600360006002548152602001908152602001600020600082015181600001556020820151816001019080519060200190620003bf92919062000492565b506040820151816002019080519060200190620003de92919062000492565b506060820151816003019080519060200190620003fd92919062000492565b5060808201518160040190805190602001906200041c92919062000492565b509050507f52323400c6ad0cb2791160e0c00b9fde4ad6647ef2ae4f5c305c58234e3f6f26600254858585856040516200045b959493929190620008d8565b60405180910390a150505050565b60008060009054906101000a900473ffffffffffffffffffffffffffffffffffffffff16905090565b828054620004a09062000a14565b90600052602060002090601f016020900481019282620004c4576000855562000510565b82601f10620004df57805160ff191683800117855562000510565b8280016001018555821562000510579182015b828111156200050f578251825591602001919060010190620004f2565b5b5090506200051f919062000523565b5090565b5b808211156200053e57600081600090555060010162000524565b5090565b600062000559620005538462000985565b62000951565b9050828152602081018484840111156200057257600080fd5b6200057f848285620009de565b509392505050565b600082601f8301126200059957600080fd5b8151620005ab84826020860162000542565b91505092915050565b60008060008060808587031215620005cb57600080fd5b600085015167ffffffffffffffff811115620005e657600080fd5b620005f48782880162000587565b945050602085015167ffffffffffffffff8111156200061257600080fd5b620006208782880162000587565b935050604085015167ffffffffffffffff8111156200063e57600080fd5b6200064c8782880162000587565b925050606085015167ffffffffffffffff8111156200066a57600080fd5b620006788782880162000587565b91505092959194509250565b60006200069182620009b8565b6200069d8185620009c3565b9350620006af818560208601620009de565b620006ba8162000b25565b840191505092915050565b6000620006d4602783620009c3565b91507f4461696c794a6f75726e616c3a20737461727454696d6520697320656d70747960008301527f20737472696e67000000000000000000000000000000000000000000000000006020830152604082019050919050565b60006200073c602583620009c3565b91507f4461696c794a6f75726e616c3a20656e6454696d6520697320656d707479207360008301527f7472696e670000000000000000000000000000000000000000000000000000006020830152604082019050919050565b6000620007a4602083620009c3565b91507f4f776e61626c653a2063616c6c6572206973206e6f7420746865206f776e65726000830152602082019050919050565b6000620007e6602283620009c3565b91507f4461696c794a6f75726e616c3a206461746520697320656d707479207374726960008301527f6e670000000000000000000000000000000000000000000000000000000000006020830152604082019050919050565b6200084a81620009d4565b82525050565b600060208201905081810360008301526200086b81620006c5565b9050919050565b600060208201905081810360008301526200088d816200072d565b9050919050565b60006020820190508181036000830152620008af8162000795565b9050919050565b60006020820190508181036000830152620008d181620007d7565b9050919050565b600060a082019050620008ef60008301886200083f565b818103602083015262000903818762000684565b9050818103604083015262000919818662000684565b905081810360608301526200092f818562000684565b9050818103608083015262000945818462000684565b90509695505050505050565b6000604051905081810181811067ffffffffffffffff821117156200097b576200097a62000af6565b5b8060405250919050565b600067ffffffffffffffff821115620009a357620009a262000af6565b5b601f19601f8301169050602081019050919050565b600081519050919050565b600082825260208201905092915050565b6000819050919050565b60005b83811015620009fe578082015181840152602081019050620009e1565b8381111562000a0e576000848401525b50505050565b6000600282049050600182168062000a2d57607f821691505b6020821081141562000a445762000a4362000ac7565b5b50919050565b600062000a5782620009d4565b91507fffffffffffffffffffffffffffffffffffffffffffffffffffffffffffffffff82141562000a8d5762000a8c62000a98565b5b600182019050919050565b7f4e487b7100000000000000000000000000000000000000000000000000000000600052601160045260246000fd5b7f4e487b7100000000000000000000000000000000000000000000000000000000600052602260045260246000fd5b7f4e487b7100000000000000000000000000000000000000000000000000000000600052604160045260246000fd5b6000601f19601f8301169050919050565b6111b38062000b466000396000f3fe608060405234801561001057600080fd5b506004361061007d5760003560e01c8063715018a61161005b578063715018a6146100da5780638da5cb5b146100e4578063b30906d414610102578063f2fde38b146101365761007d565b806306fdde03146100825780630cbb0f83146100a05780632bff99c5146100be575b600080fd5b61008a610152565b6040516100979190610def565b60405180910390f35b6100a86101e0565b6040516100b59190610eb1565b60405180910390f35b6100d860048036038101906100d39190610ab9565b6101e6565b005b6100e2610490565b005b6100ec610518565b6040516100f99190610dd4565b60405180910390f35b61011c60048036038101906101179190610b7c565b610541565b60405161012d959493929190610ecc565b60405180910390f35b610150600480360381019061014b9190610a90565b610797565b005b6001805461015f90611036565b80601f016020809104026020016040519081016040528092919081815260200182805461018b90611036565b80156101d85780601f106101ad576101008083540402835291602001916101d8565b820191906000526020600020905b8154815290600101906020018083116101bb57829003601f168201915b505050505081565b60025481565b6101ee61088f565b73ffffffffffffffffffffffffffffffffffffffff1661020c610518565b73ffffffffffffffffffffffffffffffffffffffff1614610262576040517f08c379a000000000000000000000000000000000000000000000000000000000815260040161025990610e71565b60405180910390fd5b60008451116102a6576040517f08c379a000000000000000000000000000000000000000000000000000000000815260040161029d90610e91565b60405180910390fd5b60008351116102ea576040517f08c379a00000000000000000000000000000000000000000000000000000000081526004016102e190610e11565b60405180910390fd5b600082511161032e576040517f08c379a000000000000000000000000000000000000000000000000000000000815260040161032590610e51565b60405180910390fd5b6000815111610372576040517f08c379a000000000000000000000000000000000000000000000000000000000815260040161036990610e91565b60405180910390fd5b6002600081548092919061038590611068565b91905055506040518060a001604052806002548152602001858152602001848152602001838152602001828152506003600060025481526020019081526020016000206000820151816000015560208201518160010190805190602001906103ee92919061095b565b50604082015181600201908051906020019061040b92919061095b565b50606082015181600301908051906020019061042892919061095b565b50608082015181600401908051906020019061044592919061095b565b509050507f52323400c6ad0cb2791160e0c00b9fde4ad6647ef2ae4f5c305c58234e3f6f2660025485858585604051610482959493929190610ecc565b60405180910390a150505050565b61049861088f565b73ffffffffffffffffffffffffffffffffffffffff166104b6610518565b73ffffffffffffffffffffffffffffffffffffffff161461050c576040517f08c379a000000000000000000000000000000000000000000000000000000000815260040161050390610e71565b60405180910390fd5b6105166000610897565b565b60008060009054906101000a900473ffffffffffffffffffffffffffffffffffffffff16905090565b600360205280600052604060002060009150905080600001549080600101805461056a90611036565b80601f016020809104026020016040519081016040528092919081815260200182805461059690611036565b80156105e35780601f106105b8576101008083540402835291602001916105e3565b820191906000526020600020905b8154815290600101906020018083116105c657829003601f168201915b5050505050908060020180546105f890611036565b80601f016020809104026020016040519081016040528092919081815260200182805461062490611036565b80156106715780601f1061064657610100808354040283529160200191610671565b820191906000526020600020905b81548152906001019060200180831161065457829003601f168201915b50505050509080600301805461068690611036565b80601f01602080910402602001604051908101604052809291908181526020018280546106b290611036565b80156106ff5780601f106106d4576101008083540402835291602001916106ff565b820191906000526020600020905b8154815290600101906020018083116106e257829003601f168201915b50505050509080600401805461071490611036565b80601f016020809104026020016040519081016040528092919081815260200182805461074090611036565b801561078d5780601f106107625761010080835404028352916020019161078d565b820191906000526020600020905b81548152906001019060200180831161077057829003601f168201915b5050505050905085565b61079f61088f565b73ffffffffffffffffffffffffffffffffffffffff166107bd610518565b73ffffffffffffffffffffffffffffffffffffffff1614610813576040517f08c379a000000000000000000000000000000000000000000000000000000000815260040161080a90610e71565b60405180910390fd5b600073ffffffffffffffffffffffffffffffffffffffff168173ffffffffffffffffffffffffffffffffffffffff161415610883576040517f08c379a000000000000000000000000000000000000000000000000000000000815260040161087a90610e31565b60405180910390fd5b61088c81610897565b50565b600033905090565b60008060009054906101000a900473ffffffffffffffffffffffffffffffffffffffff169050816000806101000a81548173ffffffffffffffffffffffffffffffffffffffff021916908373ffffffffffffffffffffffffffffffffffffffff1602179055508173ffffffffffffffffffffffffffffffffffffffff168173ffffffffffffffffffffffffffffffffffffffff167f8be0079c531659141344cd1fd0a4f28419497f9722a3daafe3b4186f6b6457e060405160405180910390a35050565b82805461096790611036565b90600052602060002090601f01602090048101928261098957600085556109d0565b82601f106109a257805160ff19168380011785556109d0565b828001600101855582156109d0579182015b828111156109cf5782518255916020019190600101906109b4565b5b5090506109dd91906109e1565b5090565b5b808211156109fa5760008160009055506001016109e2565b5090565b6000610a11610a0c84610f6c565b610f3b565b905082815260208101848484011115610a2957600080fd5b610a34848285610ff4565b509392505050565b600081359050610a4b8161114f565b92915050565b600082601f830112610a6257600080fd5b8135610a728482602086016109fe565b91505092915050565b600081359050610a8a81611166565b92915050565b600060208284031215610aa257600080fd5b6000610ab084828501610a3c565b91505092915050565b60008060008060808587031215610acf57600080fd5b600085013567ffffffffffffffff811115610ae957600080fd5b610af587828801610a51565b945050602085013567ffffffffffffffff811115610b1257600080fd5b610b1e87828801610a51565b935050604085013567ffffffffffffffff811115610b3b57600080fd5b610b4787828801610a51565b925050606085013567ffffffffffffffff811115610b6457600080fd5b610b7087828801610a51565b91505092959194509250565b600060208284031215610b8e57600080fd5b6000610b9c84828501610a7b565b91505092915050565b610bae81610fb8565b82525050565b6000610bbf82610f9c565b610bc98185610fa7565b9350610bd9818560208601611003565b610be28161113e565b840191505092915050565b6000610bfa602783610fa7565b91507f4461696c794a6f75726e616c3a20737461727454696d6520697320656d70747960008301527f20737472696e67000000000000000000000000000000000000000000000000006020830152604082019050919050565b6000610c60602683610fa7565b91507f4f776e61626c653a206e6577206f776e657220697320746865207a65726f206160008301527f64647265737300000000000000000000000000000000000000000000000000006020830152604082019050919050565b6000610cc6602583610fa7565b91507f4461696c794a6f75726e616c3a20656e6454696d6520697320656d707479207360008301527f7472696e670000000000000000000000000000000000000000000000000000006020830152604082019050919050565b6000610d2c602083610fa7565b91507f4f776e61626c653a2063616c6c6572206973206e6f7420746865206f776e65726000830152602082019050919050565b6000610d6c602283610fa7565b91507f4461696c794a6f75726e616c3a206461746520697320656d707479207374726960008301527f6e670000000000000000000000000000000000000000000000000000000000006020830152604082019050919050565b610dce81610fea565b82525050565b6000602082019050610de96000830184610ba5565b92915050565b60006020820190508181036000830152610e098184610bb4565b905092915050565b60006020820190508181036000830152610e2a81610bed565b9050919050565b60006020820190508181036000830152610e4a81610c53565b9050919050565b60006020820190508181036000830152610e6a81610cb9565b9050919050565b60006020820190508181036000830152610e8a81610d1f565b9050919050565b60006020820190508181036000830152610eaa81610d5f565b9050919050565b6000602082019050610ec66000830184610dc5565b92915050565b600060a082019050610ee16000830188610dc5565b8181036020830152610ef38187610bb4565b90508181036040830152610f078186610bb4565b90508181036060830152610f1b8185610bb4565b90508181036080830152610f2f8184610bb4565b90509695505050505050565b6000604051905081810181811067ffffffffffffffff82111715610f6257610f6161110f565b5b8060405250919050565b600067ffffffffffffffff821115610f8757610f8661110f565b5b601f19601f8301169050602081019050919050565b600081519050919050565b600082825260208201905092915050565b6000610fc382610fca565b9050919050565b600073ffffffffffffffffffffffffffffffffffffffff82169050919050565b6000819050919050565b82818337600083830152505050565b60005b83811015611021578082015181840152602081019050611006565b83811115611030576000848401525b50505050565b6000600282049050600182168061104e57607f821691505b60208210811415611062576110616110e0565b5b50919050565b600061107382610fea565b91507fffffffffffffffffffffffffffffffffffffffffffffffffffffffffffffffff8214156110a6576110a56110b1565b5b600182019050919050565b7f4e487b7100000000000000000000000000000000000000000000000000000000600052601160045260246000fd5b7f4e487b7100000000000000000000000000000000000000000000000000000000600052602260045260246000fd5b7f4e487b7100000000000000000000000000000000000000000000000000000000600052604160045260246000fd5b6000601f19601f8301169050919050565b61115881610fb8565b811461116357600080fd5b50565b61116f81610fea565b811461117a57600080fd5b5056fea2646970667358221220f69b8f738c9c893ff43c60e920a75b644bb624d1f33c145c30d71a7c5b9aa0cd64736f6c63430008000033",
  "immutableReferences": {},
  "source": "// SPDX-License-Identifier: MIT\r\npragma solidity 0.8.0;\r\n\r\nimport '@openzeppelin/contracts/access/Ownable.sol';\r\n\r\ncontract DailyJournal is Ownable {\r\n  string public name = \"Gregg`s Daily Journal\";\r\n  uint256 public entryCount = 0;\r\n  mapping(uint => Entry) public entries;\r\n\r\n  struct Entry {\r\n    uint256 id;\r\n    string date;\r\n    string startTime;\r\n    string endTime;\r\n    string description;\r\n  }\r\n\r\n  event EntryCreated(uint256 id, string date, string startTime, string endTime, string description);\r\n\r\n  constructor(string memory _date, string memory _startTime, string memory _endTime, string memory _description) {\r\n    createEntry(_date, _startTime, _endTime, _description);\r\n  }\r\n\r\n  function createEntry(string memory _date, string memory _startTime, string memory _endTime, string memory _description) public onlyOwner() {\r\n    require(bytes(_date).length > 0, 'DailyJournal: date is empty string');\r\n    require(bytes(_startTime).length > 0, 'DailyJournal: startTime is empty string');\r\n    require(bytes(_endTime).length > 0, 'DailyJournal: endTime is empty string');\r\n    require(bytes(_description).length > 0, 'DailyJournal: date is empty string');\r\n\r\n    entryCount++;\r\n    entries[entryCount] = Entry(entryCount, _date, _startTime, _endTime, _description);\r\n    emit EntryCreated(entryCount, _date, _startTime, _endTime, _description);\r\n  }\r\n\r\n}",
  "sourcePath": "C:\\Users\\Gregg\\OneDrive\\Projects\\Personal Projects\\Daily Journal\\src\\contracts\\DailyJournal.sol",
  "compiler": {
    "name": "solc",
    "version": "0.8.0+commit.c7dfd78e.Emscripten.clang"
  },
  "schemaVersion": "3.4.4",
  "updatedAt": "2022-02-09T14:52:30.345Z",
  "networkType": "ethereum",
  "devdoc": {
    "kind": "dev",
    "methods": {
      "owner()": {
        "details": "Returns the address of the current owner."
      },
      "renounceOwnership()": {
        "details": "Leaves the contract without owner. It will not be possible to call `onlyOwner` functions anymore. Can only be called by the current owner. NOTE: Renouncing ownership will leave the contract without an owner, thereby removing any functionality that is only available to the owner."
      },
      "transferOwnership(address)": {
        "details": "Transfers ownership of the contract to a new account (`newOwner`). Can only be called by the current owner."
      }
    },
    "version": 1
  },
  "userdoc": {
    "kind": "user",
    "methods": {},
    "version": 1
  }
}