{
  "contractName": "DailyJournal",
  "abi": [
    {
      "inputs": [
        {
          "internalType": "string",
          "name": "_breakfast",
          "type": "string"
        },
        {
          "internalType": "string",
          "name": "_lunch",
          "type": "string"
        },
        {
          "internalType": "string",
          "name": "_dinner",
          "type": "string"
        },
        {
          "internalType": "string",
          "name": "_meditation",
          "type": "string"
        },
        {
          "internalType": "string",
          "name": "_day",
          "type": "string"
        },
        {
          "internalType": "string",
          "name": "_date",
          "type": "string"
        },
        {
          "internalType": "uint256",
          "name": "_taskCount",
          "type": "uint256"
        },
        {
          "internalType": "string[]",
          "name": "_startTime",
          "type": "string[]"
        },
        {
          "internalType": "string[]",
          "name": "_endTime",
          "type": "string[]"
        },
        {
          "internalType": "string[]",
          "name": "_description",
          "type": "string[]"
        }
      ],
      "stateMutability": "nonpayable",
      "type": "constructor"
    },
    {
      "anonymous": false,
      "inputs": [
        {
          "indexed": true,
          "internalType": "uint256",
          "name": "id",
          "type": "uint256"
        },
        {
          "indexed": false,
          "internalType": "string",
          "name": "breakfast",
          "type": "string"
        },
        {
          "indexed": false,
          "internalType": "string",
          "name": "lunch",
          "type": "string"
        },
        {
          "indexed": false,
          "internalType": "string",
          "name": "dinner",
          "type": "string"
        },
        {
          "indexed": false,
          "internalType": "string",
          "name": "meditation",
          "type": "string"
        },
        {
          "indexed": false,
          "internalType": "string",
          "name": "day",
          "type": "string"
        },
        {
          "indexed": false,
          "internalType": "string",
          "name": "date",
          "type": "string"
        }
      ],
      "name": "EntryCreated",
      "type": "event"
    },
    {
      "anonymous": false,
      "inputs": [
        {
          "indexed": true,
          "internalType": "address",
          "name": "previousOwner",
          "type": "address"
        },
        {
          "indexed": true,
          "internalType": "address",
          "name": "newOwner",
          "type": "address"
        }
      ],
      "name": "OwnershipTransferred",
      "type": "event"
    },
    {
      "anonymous": false,
      "inputs": [
        {
          "indexed": true,
          "internalType": "uint256",
          "name": "entryId",
          "type": "uint256"
        },
        {
          "indexed": true,
          "internalType": "uint256",
          "name": "id",
          "type": "uint256"
        },
        {
          "indexed": false,
          "internalType": "string",
          "name": "startTime",
          "type": "string"
        },
        {
          "indexed": false,
          "internalType": "string",
          "name": "endTime",
          "type": "string"
        },
        {
          "indexed": false,
          "internalType": "string",
          "name": "description",
          "type": "string"
        }
      ],
      "name": "TaskCreated",
      "type": "event"
    },
    {
      "inputs": [
        {
          "internalType": "uint256",
          "name": "",
          "type": "uint256"
        }
      ],
      "name": "entries",
      "outputs": [
        {
          "internalType": "uint256",
          "name": "id",
          "type": "uint256"
        },
        {
          "internalType": "string",
          "name": "breakfast",
          "type": "string"
        },
        {
          "internalType": "string",
          "name": "lunch",
          "type": "string"
        },
        {
          "internalType": "string",
          "name": "dinner",
          "type": "string"
        },
        {
          "internalType": "string",
          "name": "meditation",
          "type": "string"
        },
        {
          "internalType": "string",
          "name": "day",
          "type": "string"
        },
        {
          "internalType": "string",
          "name": "date",
          "type": "string"
        }
      ],
      "stateMutability": "view",
      "type": "function"
    },
    {
      "inputs": [],
      "name": "entryCount",
      "outputs": [
        {
          "internalType": "uint256",
          "name": "",
          "type": "uint256"
        }
      ],
      "stateMutability": "view",
      "type": "function"
    },
    {
      "inputs": [],
      "name": "name",
      "outputs": [
        {
          "internalType": "string",
          "name": "",
          "type": "string"
        }
      ],
      "stateMutability": "view",
      "type": "function"
    },
    {
      "inputs": [],
      "name": "owner",
      "outputs": [
        {
          "internalType": "address",
          "name": "",
          "type": "address"
        }
      ],
      "stateMutability": "view",
      "type": "function"
    },
    {
      "inputs": [],
      "name": "renounceOwnership",
      "outputs": [],
      "stateMutability": "nonpayable",
      "type": "function"
    },
    {
      "inputs": [],
      "name": "taskCount",
      "outputs": [
        {
          "internalType": "uint256",
          "name": "",
          "type": "uint256"
        }
      ],
      "stateMutability": "view",
      "type": "function"
    },
    {
      "inputs": [
        {
          "internalType": "uint256",
          "name": "",
          "type": "uint256"
        }
      ],
      "name": "tasks",
      "outputs": [
        {
          "internalType": "uint256",
          "name": "entryId",
          "type": "uint256"
        },
        {
          "internalType": "uint256",
          "name": "id",
          "type": "uint256"
        },
        {
          "internalType": "string",
          "name": "startTime",
          "type": "string"
        },
        {
          "internalType": "string",
          "name": "endTime",
          "type": "string"
        },
        {
          "internalType": "string",
          "name": "description",
          "type": "string"
        }
      ],
      "stateMutability": "view",
      "type": "function"
    },
    {
      "inputs": [
        {
          "internalType": "address",
          "name": "newOwner",
          "type": "address"
        }
      ],
      "name": "transferOwnership",
      "outputs": [],
      "stateMutability": "nonpayable",
      "type": "function"
    },
    {
      "inputs": [
        {
          "internalType": "string",
          "name": "_breakfast",
          "type": "string"
        },
        {
          "internalType": "string",
          "name": "_lunch",
          "type": "string"
        },
        {
          "internalType": "string",
          "name": "_dinner",
          "type": "string"
        },
        {
          "internalType": "string",
          "name": "_meditation",
          "type": "string"
        },
        {
          "internalType": "string",
          "name": "_day",
          "type": "string"
        },
        {
          "internalType": "string",
          "name": "_date",
          "type": "string"
        }
      ],
      "name": "createEntry",
      "outputs": [],
      "stateMutability": "nonpayable",
      "type": "function"
    },
    {
      "inputs": [
        {
          "internalType": "uint256",
          "name": "_entryId",
          "type": "uint256"
        },
        {
          "internalType": "string",
          "name": "_startTime",
          "type": "string"
        },
        {
          "internalType": "string",
          "name": "_endTime",
          "type": "string"
        },
        {
          "internalType": "string",
          "name": "_description",
          "type": "string"
        }
      ],
      "name": "createTask",
      "outputs": [],
      "stateMutability": "nonpayable",
      "type": "function"
    }
  ],
  "bytecode": "0x60806040526040518060400160405280601581526020017f47726567676073204461696c79204a6f75726e616c0000000000000000000000815250600190805190602001906200005192919062000887565b50600060025560006004553480156200006957600080fd5b5060405162002c4f38038062002c4f83398181016040528101906200008f919062000a52565b620000af620000a3620000ec60201b60201c565b620000f460201b60201c565b620000c58a8a8a8a8a8a620001b860201b60201c565b620000dc600454858585856200044e60201b60201c565b5050505050505050505062001207565b600033905090565b60008060009054906101000a900473ffffffffffffffffffffffffffffffffffffffff169050816000806101000a81548173ffffffffffffffffffffffffffffffffffffffff021916908373ffffffffffffffffffffffffffffffffffffffff1602179055508173ffffffffffffffffffffffffffffffffffffffff168173ffffffffffffffffffffffffffffffffffffffff167f8be0079c531659141344cd1fd0a4f28419497f9722a3daafe3b4186f6b6457e060405160405180910390a35050565b620001c8620000ec60201b60201c565b73ffffffffffffffffffffffffffffffffffffffff16620001ee620005e760201b60201c565b73ffffffffffffffffffffffffffffffffffffffff161462000247576040517f08c379a00000000000000000000000000000000000000000000000000000000081526004016200023e9062000f73565b60405180910390fd5b60008251116200028e576040517f08c379a0000000000000000000000000000000000000000000000000000000008152600401620002859062000fb7565b60405180910390fd5b6000815111620002d5576040517f08c379a0000000000000000000000000000000000000000000000000000000008152600401620002cc9062000f95565b60405180910390fd5b60046000815480929190620002ea9062001101565b91905055506040518060e001604052806004548152602001878152602001868152602001858152602001848152602001838152602001828152506005600060045481526020019081526020016000206000820151816000015560208201518160010190805190602001906200036192919062000887565b5060408201518160020190805190602001906200038092919062000887565b5060608201518160030190805190602001906200039f92919062000887565b506080820151816004019080519060200190620003be92919062000887565b5060a0820151816005019080519060200190620003dd92919062000887565b5060c0820151816006019080519060200190620003fc92919062000887565b509050506004547f95ce4b2c4338741d4541edd1b50f7ec76a089a4f9d525ddcd67d05442448df688787878787876040516200043e9695949392919062000e98565b60405180910390a2505050505050565b6200045e620000ec60201b60201c565b73ffffffffffffffffffffffffffffffffffffffff1662000484620005e760201b60201c565b73ffffffffffffffffffffffffffffffffffffffff1614620004dd576040517f08c379a0000000000000000000000000000000000000000000000000000000008152600401620004d49062000f73565b60405180910390fd5b6000600190505b848111620005df57620005c98685600254815181106200052d577f4e487b7100000000000000000000000000000000000000000000000000000000600052603260045260246000fd5b6020026020010151856002548151811062000571577f4e487b7100000000000000000000000000000000000000000000000000000000600052603260045260246000fd5b60200260200101518560025481518110620005b5577f4e487b7100000000000000000000000000000000000000000000000000000000600052603260045260246000fd5b60200260200101516200061060201b60201c565b8080620005d69062001101565b915050620004e4565b505050505050565b60008060009054906101000a900473ffffffffffffffffffffffffffffffffffffffff16905090565b62000620620000ec60201b60201c565b73ffffffffffffffffffffffffffffffffffffffff1662000646620005e760201b60201c565b73ffffffffffffffffffffffffffffffffffffffff16146200069f576040517f08c379a0000000000000000000000000000000000000000000000000000000008152600401620006969062000f73565b60405180910390fd5b6000835111620006e6576040517f08c379a0000000000000000000000000000000000000000000000000000000008152600401620006dd9062000f2f565b60405180910390fd5b60008251116200072d576040517f08c379a0000000000000000000000000000000000000000000000000000000008152600401620007249062000f51565b60405180910390fd5b600081511162000774576040517f08c379a00000000000000000000000000000000000000000000000000000000081526004016200076b9062000f95565b60405180910390fd5b60026000815480929190620007899062001101565b91905055506040518060a0016040528085815260200160025481526020018481526020018381526020018281525060036000600254815260200190815260200160002060008201518160000155602082015181600101556040820151816002019080519060200190620007fe92919062000887565b5060608201518160030190805190602001906200081d92919062000887565b5060808201518160040190805190602001906200083c92919062000887565b50905050600254847f7ce35c0f73b1638ea4d8fe1595048698e86ca1fa2ad0bd632b8ab64ecdbe54c1858585604051620008799392919062000e46565b60405180910390a350505050565b8280546200089590620010cb565b90600052602060002090601f016020900481019282620008b9576000855562000905565b82601f10620008d457805160ff191683800117855562000905565b8280016001018555821562000905579182015b8281111562000904578251825591602001919060010190620008e7565b5b50905062000914919062000918565b5090565b5b808211156200093357600081600090555060010162000919565b5090565b60006200094e62000948846200100d565b62000fd9565b9050808382526020820190508260005b8581101562000992578151850162000977888262000a0e565b8452602084019350602083019250506001810190506200095e565b5050509392505050565b6000620009b3620009ad846200103c565b62000fd9565b905082815260208101848484011115620009cc57600080fd5b620009d984828562001095565b509392505050565b600082601f830112620009f357600080fd5b815162000a0584826020860162000937565b91505092915050565b600082601f83011262000a2057600080fd5b815162000a328482602086016200099c565b91505092915050565b60008151905062000a4c81620011ed565b92915050565b6000806000806000806000806000806101408b8d03121562000a7357600080fd5b60008b015167ffffffffffffffff81111562000a8e57600080fd5b62000a9c8d828e0162000a0e565b9a505060208b015167ffffffffffffffff81111562000aba57600080fd5b62000ac88d828e0162000a0e565b99505060408b015167ffffffffffffffff81111562000ae657600080fd5b62000af48d828e0162000a0e565b98505060608b015167ffffffffffffffff81111562000b1257600080fd5b62000b208d828e0162000a0e565b97505060808b015167ffffffffffffffff81111562000b3e57600080fd5b62000b4c8d828e0162000a0e565b96505060a08b015167ffffffffffffffff81111562000b6a57600080fd5b62000b788d828e0162000a0e565b95505060c062000b8b8d828e0162000a3b565b94505060e08b015167ffffffffffffffff81111562000ba957600080fd5b62000bb78d828e01620009e1565b9350506101008b015167ffffffffffffffff81111562000bd657600080fd5b62000be48d828e01620009e1565b9250506101208b015167ffffffffffffffff81111562000c0357600080fd5b62000c118d828e01620009e1565b9150509295989b9194979a5092959850565b600062000c30826200106f565b62000c3c81856200107a565b935062000c4e81856020860162001095565b62000c5981620011dc565b840191505092915050565b600062000c736027836200107a565b91507f4461696c794a6f75726e616c3a20737461727454696d6520697320656d70747960008301527f20737472696e67000000000000000000000000000000000000000000000000006020830152604082019050919050565b600062000cdb6025836200107a565b91507f4461696c794a6f75726e616c3a20656e6454696d6520697320656d707479207360008301527f7472696e670000000000000000000000000000000000000000000000000000006020830152604082019050919050565b600062000d436020836200107a565b91507f4f776e61626c653a2063616c6c6572206973206e6f7420746865206f776e65726000830152602082019050919050565b600062000d856022836200107a565b91507f4461696c794a6f75726e616c3a206461746520697320656d707479207374726960008301527f6e670000000000000000000000000000000000000000000000000000000000006020830152604082019050919050565b600062000ded6021836200107a565b91507f4461696c794a6f75726e616c3a2064617920697320656d70747920737472696e60008301527f67000000000000000000000000000000000000000000000000000000000000006020830152604082019050919050565b6000606082019050818103600083015262000e62818662000c23565b9050818103602083015262000e78818562000c23565b9050818103604083015262000e8e818462000c23565b9050949350505050565b600060c082019050818103600083015262000eb4818962000c23565b9050818103602083015262000eca818862000c23565b9050818103604083015262000ee0818762000c23565b9050818103606083015262000ef6818662000c23565b9050818103608083015262000f0c818562000c23565b905081810360a083015262000f22818462000c23565b9050979650505050505050565b6000602082019050818103600083015262000f4a8162000c64565b9050919050565b6000602082019050818103600083015262000f6c8162000ccc565b9050919050565b6000602082019050818103600083015262000f8e8162000d34565b9050919050565b6000602082019050818103600083015262000fb08162000d76565b9050919050565b6000602082019050818103600083015262000fd28162000dde565b9050919050565b6000604051905081810181811067ffffffffffffffff82111715620010035762001002620011ad565b5b8060405250919050565b600067ffffffffffffffff8211156200102b576200102a620011ad565b5b602082029050602081019050919050565b600067ffffffffffffffff8211156200105a5762001059620011ad565b5b601f19601f8301169050602081019050919050565b600081519050919050565b600082825260208201905092915050565b6000819050919050565b60005b83811015620010b557808201518184015260208101905062001098565b83811115620010c5576000848401525b50505050565b60006002820490506001821680620010e457607f821691505b60208210811415620010fb57620010fa6200117e565b5b50919050565b60006200110e826200108b565b91507fffffffffffffffffffffffffffffffffffffffffffffffffffffffffffffffff8214156200114457620011436200114f565b5b600182019050919050565b7f4e487b7100000000000000000000000000000000000000000000000000000000600052601160045260246000fd5b7f4e487b7100000000000000000000000000000000000000000000000000000000600052602260045260246000fd5b7f4e487b7100000000000000000000000000000000000000000000000000000000600052604160045260246000fd5b6000601f19601f8301169050919050565b620011f8816200108b565b81146200120457600080fd5b50565b611a3880620012176000396000f3fe608060405234801561001057600080fd5b506004361061009e5760003560e01c80638da5cb5b116100665780638da5cb5b14610139578063b11fd83f14610157578063b30906d414610173578063b6cb58a5146101a9578063f2fde38b146101c75761009e565b806306fdde03146100a35780630cbb0f83146100c157806329a9857e146100df578063715018a6146100fb5780638d97767214610105575b600080fd5b6100ab6101e3565b6040516100b891906114eb565b60405180910390f35b6100c9610271565b6040516100d691906116a4565b60405180910390f35b6100f960048036038101906100f4919061104e565b610277565b005b6101036104e4565b005b61011f600480360381019061011a9190611167565b61056c565b604051610130959493929190611758565b60405180910390f35b61014161073a565b60405161014e91906114d0565b60405180910390f35b610171600480360381019061016c9190611190565b610763565b005b61018d60048036038101906101889190611167565b6109b4565b6040516101a097969594939291906116bf565b60405180910390f35b6101b1610d26565b6040516101be91906116a4565b60405180910390f35b6101e160048036038101906101dc9190611025565b610d2c565b005b600180546101f0906118bb565b80601f016020809104026020016040519081016040528092919081815260200182805461021c906118bb565b80156102695780601f1061023e57610100808354040283529160200191610269565b820191906000526020600020905b81548152906001019060200180831161024c57829003601f168201915b505050505081565b60045481565b61027f610e24565b73ffffffffffffffffffffffffffffffffffffffff1661029d61073a565b73ffffffffffffffffffffffffffffffffffffffff16146102f3576040517f08c379a00000000000000000000000000000000000000000000000000000000081526004016102ea90611644565b60405180910390fd5b6000825111610337576040517f08c379a000000000000000000000000000000000000000000000000000000000815260040161032e90611684565b60405180910390fd5b600081511161037b576040517f08c379a000000000000000000000000000000000000000000000000000000000815260040161037290611664565b60405180910390fd5b6004600081548092919061038e906118ed565b91905055506040518060e00160405280600454815260200187815260200186815260200185815260200184815260200183815260200182815250600560006004548152602001908152602001600020600082015181600001556020820151816001019080519060200190610403929190610ef0565b506040820151816002019080519060200190610420929190610ef0565b50606082015181600301908051906020019061043d929190610ef0565b50608082015181600401908051906020019061045a929190610ef0565b5060a0820151816005019080519060200190610477929190610ef0565b5060c0820151816006019080519060200190610494929190610ef0565b509050506004547f95ce4b2c4338741d4541edd1b50f7ec76a089a4f9d525ddcd67d05442448df688787878787876040516104d496959493929190611559565b60405180910390a2505050505050565b6104ec610e24565b73ffffffffffffffffffffffffffffffffffffffff1661050a61073a565b73ffffffffffffffffffffffffffffffffffffffff1614610560576040517f08c379a000000000000000000000000000000000000000000000000000000000815260040161055790611644565b60405180910390fd5b61056a6000610e2c565b565b600360205280600052604060002060009150905080600001549080600101549080600201805461059b906118bb565b80601f01602080910402602001604051908101604052809291908181526020018280546105c7906118bb565b80156106145780601f106105e957610100808354040283529160200191610614565b820191906000526020600020905b8154815290600101906020018083116105f757829003601f168201915b505050505090806003018054610629906118bb565b80601f0160208091040260200160405190810160405280929190818152602001828054610655906118bb565b80156106a25780601f10610677576101008083540402835291602001916106a2565b820191906000526020600020905b81548152906001019060200180831161068557829003601f168201915b5050505050908060040180546106b7906118bb565b80601f01602080910402602001604051908101604052809291908181526020018280546106e3906118bb565b80156107305780601f1061070557610100808354040283529160200191610730565b820191906000526020600020905b81548152906001019060200180831161071357829003601f168201915b5050505050905085565b60008060009054906101000a900473ffffffffffffffffffffffffffffffffffffffff16905090565b61076b610e24565b73ffffffffffffffffffffffffffffffffffffffff1661078961073a565b73ffffffffffffffffffffffffffffffffffffffff16146107df576040517f08c379a00000000000000000000000000000000000000000000000000000000081526004016107d690611644565b60405180910390fd5b6000835111610823576040517f08c379a000000000000000000000000000000000000000000000000000000000815260040161081a906115e4565b60405180910390fd5b6000825111610867576040517f08c379a000000000000000000000000000000000000000000000000000000000815260040161085e90611624565b60405180910390fd5b60008151116108ab576040517f08c379a00000000000000000000000000000000000000000000000000000000081526004016108a290611664565b60405180910390fd5b600260008154809291906108be906118ed565b91905055506040518060a0016040528085815260200160025481526020018481526020018381526020018281525060036000600254815260200190815260200160002060008201518160000155602082015181600101556040820151816002019080519060200190610931929190610ef0565b50606082015181600301908051906020019061094e929190610ef0565b50608082015181600401908051906020019061096b929190610ef0565b50905050600254847f7ce35c0f73b1638ea4d8fe1595048698e86ca1fa2ad0bd632b8ab64ecdbe54c18585856040516109a69392919061150d565b60405180910390a350505050565b60056020528060005260406000206000915090508060000154908060010180546109dd906118bb565b80601f0160208091040260200160405190810160405280929190818152602001828054610a09906118bb565b8015610a565780601f10610a2b57610100808354040283529160200191610a56565b820191906000526020600020905b815481529060010190602001808311610a3957829003601f168201915b505050505090806002018054610a6b906118bb565b80601f0160208091040260200160405190810160405280929190818152602001828054610a97906118bb565b8015610ae45780601f10610ab957610100808354040283529160200191610ae4565b820191906000526020600020905b815481529060010190602001808311610ac757829003601f168201915b505050505090806003018054610af9906118bb565b80601f0160208091040260200160405190810160405280929190818152602001828054610b25906118bb565b8015610b725780601f10610b4757610100808354040283529160200191610b72565b820191906000526020600020905b815481529060010190602001808311610b5557829003601f168201915b505050505090806004018054610b87906118bb565b80601f0160208091040260200160405190810160405280929190818152602001828054610bb3906118bb565b8015610c005780601f10610bd557610100808354040283529160200191610c00565b820191906000526020600020905b815481529060010190602001808311610be357829003601f168201915b505050505090806005018054610c15906118bb565b80601f0160208091040260200160405190810160405280929190818152602001828054610c41906118bb565b8015610c8e5780601f10610c6357610100808354040283529160200191610c8e565b820191906000526020600020905b815481529060010190602001808311610c7157829003601f168201915b505050505090806006018054610ca3906118bb565b80601f0160208091040260200160405190810160405280929190818152602001828054610ccf906118bb565b8015610d1c5780601f10610cf157610100808354040283529160200191610d1c565b820191906000526020600020905b815481529060010190602001808311610cff57829003601f168201915b5050505050905087565b60025481565b610d34610e24565b73ffffffffffffffffffffffffffffffffffffffff16610d5261073a565b73ffffffffffffffffffffffffffffffffffffffff1614610da8576040517f08c379a0000000000000000000000000000000000000000000000000000000008152600401610d9f90611644565b60405180910390fd5b600073ffffffffffffffffffffffffffffffffffffffff168173ffffffffffffffffffffffffffffffffffffffff161415610e18576040517f08c379a0000000000000000000000000000000000000000000000000000000008152600401610e0f90611604565b60405180910390fd5b610e2181610e2c565b50565b600033905090565b60008060009054906101000a900473ffffffffffffffffffffffffffffffffffffffff169050816000806101000a81548173ffffffffffffffffffffffffffffffffffffffff021916908373ffffffffffffffffffffffffffffffffffffffff1602179055508173ffffffffffffffffffffffffffffffffffffffff168173ffffffffffffffffffffffffffffffffffffffff167f8be0079c531659141344cd1fd0a4f28419497f9722a3daafe3b4186f6b6457e060405160405180910390a35050565b828054610efc906118bb565b90600052602060002090601f016020900481019282610f1e5760008555610f65565b82601f10610f3757805160ff1916838001178555610f65565b82800160010185558215610f65579182015b82811115610f64578251825591602001919060010190610f49565b5b509050610f729190610f76565b5090565b5b80821115610f8f576000816000905550600101610f77565b5090565b6000610fa6610fa1846117f1565b6117c0565b905082815260208101848484011115610fbe57600080fd5b610fc9848285611879565b509392505050565b600081359050610fe0816119d4565b92915050565b600082601f830112610ff757600080fd5b8135611007848260208601610f93565b91505092915050565b60008135905061101f816119eb565b92915050565b60006020828403121561103757600080fd5b600061104584828501610fd1565b91505092915050565b60008060008060008060c0878903121561106757600080fd5b600087013567ffffffffffffffff81111561108157600080fd5b61108d89828a01610fe6565b965050602087013567ffffffffffffffff8111156110aa57600080fd5b6110b689828a01610fe6565b955050604087013567ffffffffffffffff8111156110d357600080fd5b6110df89828a01610fe6565b945050606087013567ffffffffffffffff8111156110fc57600080fd5b61110889828a01610fe6565b935050608087013567ffffffffffffffff81111561112557600080fd5b61113189828a01610fe6565b92505060a087013567ffffffffffffffff81111561114e57600080fd5b61115a89828a01610fe6565b9150509295509295509295565b60006020828403121561117957600080fd5b600061118784828501611010565b91505092915050565b600080600080608085870312156111a657600080fd5b60006111b487828801611010565b945050602085013567ffffffffffffffff8111156111d157600080fd5b6111dd87828801610fe6565b935050604085013567ffffffffffffffff8111156111fa57600080fd5b61120687828801610fe6565b925050606085013567ffffffffffffffff81111561122357600080fd5b61122f87828801610fe6565b91505092959194509250565b6112448161183d565b82525050565b600061125582611821565b61125f818561182c565b935061126f818560208601611888565b611278816119c3565b840191505092915050565b600061129060278361182c565b91507f4461696c794a6f75726e616c3a20737461727454696d6520697320656d70747960008301527f20737472696e67000000000000000000000000000000000000000000000000006020830152604082019050919050565b60006112f660268361182c565b91507f4f776e61626c653a206e6577206f776e657220697320746865207a65726f206160008301527f64647265737300000000000000000000000000000000000000000000000000006020830152604082019050919050565b600061135c60258361182c565b91507f4461696c794a6f75726e616c3a20656e6454696d6520697320656d707479207360008301527f7472696e670000000000000000000000000000000000000000000000000000006020830152604082019050919050565b60006113c260208361182c565b91507f4f776e61626c653a2063616c6c6572206973206e6f7420746865206f776e65726000830152602082019050919050565b600061140260228361182c565b91507f4461696c794a6f75726e616c3a206461746520697320656d707479207374726960008301527f6e670000000000000000000000000000000000000000000000000000000000006020830152604082019050919050565b600061146860218361182c565b91507f4461696c794a6f75726e616c3a2064617920697320656d70747920737472696e60008301527f67000000000000000000000000000000000000000000000000000000000000006020830152604082019050919050565b6114ca8161186f565b82525050565b60006020820190506114e5600083018461123b565b92915050565b60006020820190508181036000830152611505818461124a565b905092915050565b60006060820190508181036000830152611527818661124a565b9050818103602083015261153b818561124a565b9050818103604083015261154f818461124a565b9050949350505050565b600060c0820190508181036000830152611573818961124a565b90508181036020830152611587818861124a565b9050818103604083015261159b818761124a565b905081810360608301526115af818661124a565b905081810360808301526115c3818561124a565b905081810360a08301526115d7818461124a565b9050979650505050505050565b600060208201905081810360008301526115fd81611283565b9050919050565b6000602082019050818103600083015261161d816112e9565b9050919050565b6000602082019050818103600083015261163d8161134f565b9050919050565b6000602082019050818103600083015261165d816113b5565b9050919050565b6000602082019050818103600083015261167d816113f5565b9050919050565b6000602082019050818103600083015261169d8161145b565b9050919050565b60006020820190506116b960008301846114c1565b92915050565b600060e0820190506116d4600083018a6114c1565b81810360208301526116e6818961124a565b905081810360408301526116fa818861124a565b9050818103606083015261170e818761124a565b90508181036080830152611722818661124a565b905081810360a0830152611736818561124a565b905081810360c083015261174a818461124a565b905098975050505050505050565b600060a08201905061176d60008301886114c1565b61177a60208301876114c1565b818103604083015261178c818661124a565b905081810360608301526117a0818561124a565b905081810360808301526117b4818461124a565b90509695505050505050565b6000604051905081810181811067ffffffffffffffff821117156117e7576117e6611994565b5b8060405250919050565b600067ffffffffffffffff82111561180c5761180b611994565b5b601f19601f8301169050602081019050919050565b600081519050919050565b600082825260208201905092915050565b60006118488261184f565b9050919050565b600073ffffffffffffffffffffffffffffffffffffffff82169050919050565b6000819050919050565b82818337600083830152505050565b60005b838110156118a657808201518184015260208101905061188b565b838111156118b5576000848401525b50505050565b600060028204905060018216806118d357607f821691505b602082108114156118e7576118e6611965565b5b50919050565b60006118f88261186f565b91507fffffffffffffffffffffffffffffffffffffffffffffffffffffffffffffffff82141561192b5761192a611936565b5b600182019050919050565b7f4e487b7100000000000000000000000000000000000000000000000000000000600052601160045260246000fd5b7f4e487b7100000000000000000000000000000000000000000000000000000000600052602260045260246000fd5b7f4e487b7100000000000000000000000000000000000000000000000000000000600052604160045260246000fd5b6000601f19601f8301169050919050565b6119dd8161183d565b81146119e857600080fd5b50565b6119f48161186f565b81146119ff57600080fd5b5056fea2646970667358221220b89f2cebe0e28a500f50dff4b8c963818d87d28ed2ebda7651f31d4540c46fa864736f6c63430008000033",
  "immutableReferences": {},
  "source": "// SPDX-License-Identifier: MIT\r\npragma solidity 0.8.0;\r\n\r\nimport '@openzeppelin/contracts/access/Ownable.sol';\r\n\r\n/// @title Gregg's Daily Journal\r\n/// @author Gregg W. Dent\r\n/// @notice This contract is used to create entries and tasks in the journal\r\n/// @dev All function calls are currently implemented without side effects\r\ncontract DailyJournal is Ownable {\r\n\r\n  /// @notice The name of the Contract\r\n  /// @dev This is the name that will be displayed on the front-end\r\n  string public name = \"Gregg`s Daily Journal\";\r\n\r\n  /// @notice The amount of tasks in the tasks mapping\r\n  /// @dev This will be used to list the tasks mapping\r\n  uint256 public taskCount = 0;\r\n\r\n  /// @notice A mapping of the tasks that are stored on the contract\r\n  /// @dev This will be used to store the tasks created\r\n  mapping(uint256 => Task) public tasks;\r\n\r\n  /// @notice The amount of entries in the entries mapping\r\n  /// @dev This will be used to list the entries mapping\r\n  uint256 public entryCount = 0;\r\n\r\n  /// @notice A mapping of the entries that are stored on the contract\r\n  /// @dev This will be used to store the entries created\r\n  mapping(uint256 => Entry) public entries;\r\n\r\n  struct Task {\r\n    uint256 entryId;\r\n    uint256 id;\r\n    string startTime;\r\n    string endTime;\r\n    string description;\r\n  }\r\n\r\n  struct Entry {\r\n    uint256 id;\r\n    string breakfast;\r\n    string lunch;\r\n    string dinner;\r\n    string meditation;\r\n    string day;\r\n    string date;\r\n  }\r\n\r\n  /// @notice Event for when a task is created\r\n  /// @dev This will be emitted when a task is created\r\n  /// @param entryId The entryId the task is associated with that is indexed\r\n  /// @param id The id of the task that is indexed\r\n  /// @param startTime The time the task started\r\n  /// @param endTime The time the task ended\r\n  /// @param description Details about the task\r\n  event TaskCreated(\r\n    uint256 indexed entryId,\r\n    uint256 indexed id,\r\n    string startTime,\r\n    string endTime,\r\n    string description\r\n  );\r\n\r\n  /// @notice Event for when an entry is created\r\n  /// @dev This will be emitted when an entry is created\r\n  /// @param id The id of the entry that is indexed\r\n  /// @param breakfast What breakfast was that day\r\n  /// @param lunch What lunch was that day\r\n  /// @param dinner What dinner was that day\r\n  /// @param meditation How long was meditation that day\r\n  /// @param day What day it is\r\n  /// @param date What date it is\r\n  event EntryCreated(\r\n    uint256 indexed id, \r\n    string breakfast,\r\n    string lunch,\r\n    string dinner,\r\n    string meditation,\r\n    string day,\r\n    string date\r\n  );\r\n\r\n  constructor(\r\n    string memory _breakfast,\r\n    string memory _lunch,\r\n    string memory _dinner,\r\n    string memory _meditation,\r\n    string memory _day,\r\n    string memory _date, \r\n    uint256 _taskCount,\r\n    string[] memory _startTime,\r\n    string[] memory _endTime,\r\n    string[] memory _description\r\n  ) \r\n  {\r\n    createEntry(_breakfast, _lunch, _dinner, _meditation, _day, _date);\r\n    createTasks(entryCount, _taskCount, _startTime, _endTime, _description);\r\n  }\r\n\r\n  /// @notice Create an Entry with the given daily data\r\n  /// @dev The day and date must not be empty\r\n  /// @param _breakfast What breakfast was that day\r\n  /// @param _lunch What lunch was that day\r\n  /// @param _dinner What dinner was that day\r\n  /// @param _meditation How long was meditation that day\r\n  /// @param _day What day it is\r\n  /// @param _date What date it is\r\n  function createEntry(\r\n    string memory _breakfast,\r\n    string memory _lunch,\r\n    string memory _dinner,\r\n    string memory _meditation,\r\n    string memory _day,\r\n    string memory _date\r\n  ) \r\n    public onlyOwner()\r\n  {\r\n    require(bytes(_day).length > 0, 'DailyJournal: day is empty string');\r\n    require(bytes(_date).length > 0, 'DailyJournal: date is empty string');\r\n\r\n    entryCount++;\r\n\r\n    entries[entryCount] = Entry(entryCount,_breakfast, _lunch, _dinner, _meditation, _day, _date);\r\n\r\n    emit EntryCreated(entryCount, _breakfast, _lunch, _dinner, _meditation, _day, _date);\r\n  }\r\n\r\n  /// @notice This creates the initial tasks when the contract is created\r\n  /// @dev This is an internal function that is only called when the contract is created\r\n  /// @param _entryId The entry id the tasks are associated with\r\n  /// @param _numOfTasks The number of tasks to create\r\n  /// @param _startTime The start times of the tasks\r\n  /// @param _endTime The end times of the tasks\r\n  /// @param _description Details of the tasks\r\n  function createTasks(\r\n    uint256 _entryId,\r\n    uint256 _numOfTasks, \r\n    string[] memory _startTime, \r\n    string[] memory _endTime, \r\n    string[] memory _description\r\n  ) \r\n    internal onlyOwner() \r\n  {\r\n\r\n    for(uint256 i=1; i<=_numOfTasks; i++) {\r\n      createTask(_entryId, _startTime[taskCount], _endTime[taskCount], _description[taskCount]);\r\n    }\r\n\r\n  }\r\n\r\n  /// @notice Create a Task with the given task data\r\n  /// @dev The start time, end time, and description must not be empty\r\n  /// @param _entryId The entry id the task is associated with\r\n  /// @param _startTime The start time of the task\r\n  /// @param _endTime The end time of the task\r\n  /// @param _description Details about the task \r\n  function createTask(\r\n    uint256 _entryId,\r\n    string memory _startTime,\r\n    string memory _endTime,\r\n    string memory _description\r\n  ) \r\n    public onlyOwner() \r\n  {\r\n    require(bytes(_startTime).length > 0, 'DailyJournal: startTime is empty string');\r\n    require(bytes(_endTime).length > 0, 'DailyJournal: endTime is empty string');\r\n    require(bytes(_description).length > 0, 'DailyJournal: date is empty string');\r\n\r\n    taskCount++;\r\n\r\n    tasks[taskCount] = Task(_entryId, taskCount, _startTime, _endTime, _description);\r\n\r\n    emit TaskCreated(_entryId, taskCount, _startTime, _endTime, _description);\r\n  }\r\n\r\n}",
  "sourcePath": "C:\\Users\\Gregg\\OneDrive\\Projects\\Personal Projects\\Daily Journal\\src\\contracts\\DailyJournal.sol",
  "compiler": {
    "name": "solc",
    "version": "0.8.0+commit.c7dfd78e.Emscripten.clang"
  },
  "schemaVersion": "3.4.4",
  "updatedAt": "2022-02-21T20:41:01.046Z",
  "devdoc": {
    "author": "Gregg W. Dent",
    "details": "All function calls are currently implemented without side effects",
    "events": {
      "EntryCreated(uint256,string,string,string,string,string,string)": {
        "details": "This will be emitted when an entry is created",
        "params": {
          "breakfast": "What breakfast was that day",
          "date": "What date it is",
          "day": "What day it is",
          "dinner": "What dinner was that day",
          "id": "The id of the entry that is indexed",
          "lunch": "What lunch was that day",
          "meditation": "How long was meditation that day"
        }
      },
      "TaskCreated(uint256,uint256,string,string,string)": {
        "details": "This will be emitted when a task is created",
        "params": {
          "description": "Details about the task",
          "endTime": "The time the task ended",
          "entryId": "The entryId the task is associated with that is indexed",
          "id": "The id of the task that is indexed",
          "startTime": "The time the task started"
        }
      }
    },
    "kind": "dev",
    "methods": {
      "createEntry(string,string,string,string,string,string)": {
        "details": "The day and date must not be empty",
        "params": {
          "_breakfast": "What breakfast was that day",
          "_date": "What date it is",
          "_day": "What day it is",
          "_dinner": "What dinner was that day",
          "_lunch": "What lunch was that day",
          "_meditation": "How long was meditation that day"
        }
      },
      "createTask(uint256,string,string,string)": {
        "details": "The start time, end time, and description must not be empty",
        "params": {
          "_description": "Details about the task ",
          "_endTime": "The end time of the task",
          "_entryId": "The entry id the task is associated with",
          "_startTime": "The start time of the task"
        }
      },
      "owner()": {
        "details": "Returns the address of the current owner."
      },
      "renounceOwnership()": {
        "details": "Leaves the contract without owner. It will not be possible to call `onlyOwner` functions anymore. Can only be called by the current owner. NOTE: Renouncing ownership will leave the contract without an owner, thereby removing any functionality that is only available to the owner."
      },
      "transferOwnership(address)": {
        "details": "Transfers ownership of the contract to a new account (`newOwner`). Can only be called by the current owner."
      }
    },
    "stateVariables": {
      "entries": {
        "details": "This will be used to store the entries created"
      },
      "entryCount": {
        "details": "This will be used to list the entries mapping"
      },
      "name": {
        "details": "This is the name that will be displayed on the front-end"
      },
      "taskCount": {
        "details": "This will be used to list the tasks mapping"
      },
      "tasks": {
        "details": "This will be used to store the tasks created"
      }
    },
    "title": "Gregg's Daily Journal",
    "version": 1
  },
  "userdoc": {
    "events": {
      "EntryCreated(uint256,string,string,string,string,string,string)": {
        "notice": "Event for when an entry is created"
      },
      "TaskCreated(uint256,uint256,string,string,string)": {
        "notice": "Event for when a task is created"
      }
    },
    "kind": "user",
    "methods": {
      "createEntry(string,string,string,string,string,string)": {
        "notice": "Create an Entry with the given daily data"
      },
      "createTask(uint256,string,string,string)": {
        "notice": "Create a Task with the given task data"
      },
      "entries(uint256)": {
        "notice": "A mapping of the entries that are stored on the contract"
      },
      "entryCount()": {
        "notice": "The amount of entries in the entries mapping"
      },
      "name()": {
        "notice": "The name of the Contract"
      },
      "taskCount()": {
        "notice": "The amount of tasks in the tasks mapping"
      },
      "tasks(uint256)": {
        "notice": "A mapping of the tasks that are stored on the contract"
      }
    },
    "notice": "This contract is used to create entries and tasks in the journal",
    "version": 1
  }
}