{
  "contractName": "DailyJournal",
  "abi": [
    {
      "inputs": [
        {
          "internalType": "string",
          "name": "_breakfast",
          "type": "string"
        },
        {
          "internalType": "string",
          "name": "_lunch",
          "type": "string"
        },
        {
          "internalType": "string",
          "name": "_dinner",
          "type": "string"
        },
        {
          "internalType": "string",
          "name": "_meditation",
          "type": "string"
        },
        {
          "internalType": "string",
          "name": "_day",
          "type": "string"
        },
        {
          "internalType": "string",
          "name": "_date",
          "type": "string"
        },
        {
          "internalType": "uint256",
          "name": "_taskCount",
          "type": "uint256"
        },
        {
          "internalType": "string[]",
          "name": "_startTime",
          "type": "string[]"
        },
        {
          "internalType": "string[]",
          "name": "_endTime",
          "type": "string[]"
        },
        {
          "internalType": "string[]",
          "name": "_description",
          "type": "string[]"
        }
      ],
      "stateMutability": "nonpayable",
      "type": "constructor"
    },
    {
      "anonymous": false,
      "inputs": [
        {
          "indexed": false,
          "internalType": "uint256",
          "name": "id",
          "type": "uint256"
        },
        {
          "indexed": false,
          "internalType": "string",
          "name": "breakfast",
          "type": "string"
        },
        {
          "indexed": false,
          "internalType": "string",
          "name": "lunch",
          "type": "string"
        },
        {
          "indexed": false,
          "internalType": "string",
          "name": "dinner",
          "type": "string"
        },
        {
          "indexed": false,
          "internalType": "string",
          "name": "meditation",
          "type": "string"
        },
        {
          "indexed": false,
          "internalType": "string",
          "name": "day",
          "type": "string"
        },
        {
          "indexed": false,
          "internalType": "string",
          "name": "date",
          "type": "string"
        }
      ],
      "name": "EntryCreated",
      "type": "event"
    },
    {
      "anonymous": false,
      "inputs": [
        {
          "indexed": true,
          "internalType": "address",
          "name": "previousOwner",
          "type": "address"
        },
        {
          "indexed": true,
          "internalType": "address",
          "name": "newOwner",
          "type": "address"
        }
      ],
      "name": "OwnershipTransferred",
      "type": "event"
    },
    {
      "anonymous": false,
      "inputs": [
        {
          "indexed": false,
          "internalType": "uint256",
          "name": "entryId",
          "type": "uint256"
        },
        {
          "indexed": false,
          "internalType": "uint256",
          "name": "id",
          "type": "uint256"
        },
        {
          "indexed": false,
          "internalType": "string",
          "name": "startTime",
          "type": "string"
        },
        {
          "indexed": false,
          "internalType": "string",
          "name": "endTime",
          "type": "string"
        },
        {
          "indexed": false,
          "internalType": "string",
          "name": "description",
          "type": "string"
        }
      ],
      "name": "TaskCreated",
      "type": "event"
    },
    {
      "inputs": [
        {
          "internalType": "uint256",
          "name": "",
          "type": "uint256"
        }
      ],
      "name": "entries",
      "outputs": [
        {
          "internalType": "uint256",
          "name": "id",
          "type": "uint256"
        },
        {
          "internalType": "string",
          "name": "breakfast",
          "type": "string"
        },
        {
          "internalType": "string",
          "name": "lunch",
          "type": "string"
        },
        {
          "internalType": "string",
          "name": "dinner",
          "type": "string"
        },
        {
          "internalType": "string",
          "name": "meditation",
          "type": "string"
        },
        {
          "internalType": "string",
          "name": "day",
          "type": "string"
        },
        {
          "internalType": "string",
          "name": "date",
          "type": "string"
        }
      ],
      "stateMutability": "view",
      "type": "function",
      "constant": true
    },
    {
      "inputs": [],
      "name": "entryCount",
      "outputs": [
        {
          "internalType": "uint256",
          "name": "",
          "type": "uint256"
        }
      ],
      "stateMutability": "view",
      "type": "function",
      "constant": true
    },
    {
      "inputs": [],
      "name": "name",
      "outputs": [
        {
          "internalType": "string",
          "name": "",
          "type": "string"
        }
      ],
      "stateMutability": "view",
      "type": "function",
      "constant": true
    },
    {
      "inputs": [],
      "name": "owner",
      "outputs": [
        {
          "internalType": "address",
          "name": "",
          "type": "address"
        }
      ],
      "stateMutability": "view",
      "type": "function",
      "constant": true
    },
    {
      "inputs": [],
      "name": "renounceOwnership",
      "outputs": [],
      "stateMutability": "nonpayable",
      "type": "function"
    },
    {
      "inputs": [],
      "name": "taskCount",
      "outputs": [
        {
          "internalType": "uint256",
          "name": "",
          "type": "uint256"
        }
      ],
      "stateMutability": "view",
      "type": "function",
      "constant": true
    },
    {
      "inputs": [
        {
          "internalType": "uint256",
          "name": "",
          "type": "uint256"
        }
      ],
      "name": "tasks",
      "outputs": [
        {
          "internalType": "uint256",
          "name": "entryId",
          "type": "uint256"
        },
        {
          "internalType": "uint256",
          "name": "id",
          "type": "uint256"
        },
        {
          "internalType": "string",
          "name": "startTime",
          "type": "string"
        },
        {
          "internalType": "string",
          "name": "endTime",
          "type": "string"
        },
        {
          "internalType": "string",
          "name": "description",
          "type": "string"
        }
      ],
      "stateMutability": "view",
      "type": "function",
      "constant": true
    },
    {
      "inputs": [
        {
          "internalType": "address",
          "name": "newOwner",
          "type": "address"
        }
      ],
      "name": "transferOwnership",
      "outputs": [],
      "stateMutability": "nonpayable",
      "type": "function"
    },
    {
      "inputs": [
        {
          "internalType": "string",
          "name": "_breakfast",
          "type": "string"
        },
        {
          "internalType": "string",
          "name": "_lunch",
          "type": "string"
        },
        {
          "internalType": "string",
          "name": "_dinner",
          "type": "string"
        },
        {
          "internalType": "string",
          "name": "_meditation",
          "type": "string"
        },
        {
          "internalType": "string",
          "name": "_day",
          "type": "string"
        },
        {
          "internalType": "string",
          "name": "_date",
          "type": "string"
        }
      ],
      "name": "createEntry",
      "outputs": [
        {
          "internalType": "uint256",
          "name": "_id",
          "type": "uint256"
        }
      ],
      "stateMutability": "nonpayable",
      "type": "function"
    },
    {
      "inputs": [
        {
          "internalType": "uint256",
          "name": "_entryId",
          "type": "uint256"
        },
        {
          "internalType": "string",
          "name": "_startTime",
          "type": "string"
        },
        {
          "internalType": "string",
          "name": "_endTime",
          "type": "string"
        },
        {
          "internalType": "string",
          "name": "_description",
          "type": "string"
        }
      ],
      "name": "createTask",
      "outputs": [],
      "stateMutability": "nonpayable",
      "type": "function"
    }
  ],
  "bytecode": "0x60806040526040518060400160405280601581526020017f47726567676073204461696c79204a6f75726e616c0000000000000000000000815250600190805190602001906200005192919062000894565b50600060025560006004553480156200006957600080fd5b5060405162002be638038062002be683398181016040528101906200008f919062000a5f565b620000af620000a3620000ed60201b60201c565b620000f560201b60201c565b620000c58a8a8a8a8a8a620001b960201b60201c565b50620000dd600454858585856200045960201b60201c565b5050505050505050505062001255565b600033905090565b60008060009054906101000a900473ffffffffffffffffffffffffffffffffffffffff169050816000806101000a81548173ffffffffffffffffffffffffffffffffffffffff021916908373ffffffffffffffffffffffffffffffffffffffff1602179055508173ffffffffffffffffffffffffffffffffffffffff168173ffffffffffffffffffffffffffffffffffffffff167f8be0079c531659141344cd1fd0a4f28419497f9722a3daafe3b4186f6b6457e060405160405180910390a35050565b6000620001cb620000ed60201b60201c565b73ffffffffffffffffffffffffffffffffffffffff16620001f1620005f260201b60201c565b73ffffffffffffffffffffffffffffffffffffffff16146200024a576040517f08c379a0000000000000000000000000000000000000000000000000000000008152600401620002419062000ea8565b60405180910390fd5b600083511162000291576040517f08c379a0000000000000000000000000000000000000000000000000000000008152600401620002889062000eec565b60405180910390fd5b6000825111620002d8576040517f08c379a0000000000000000000000000000000000000000000000000000000008152600401620002cf9062000eca565b60405180910390fd5b60046000815480929190620002ed906200114f565b91905055506040518060e001604052806004548152602001888152602001878152602001868152602001858152602001848152602001838152506005600060045481526020019081526020016000206000820151816000015560208201518160010190805190602001906200036492919062000894565b5060408201518160020190805190602001906200038392919062000894565b506060820151816003019080519060200190620003a292919062000894565b506080820151816004019080519060200190620003c192919062000894565b5060a0820151816005019080519060200190620003e092919062000894565b5060c0820151816006019080519060200190620003ff92919062000894565b509050507f95ce4b2c4338741d4541edd1b50f7ec76a089a4f9d525ddcd67d05442448df6860045488888888888860405162000442979695949392919062000f0e565b60405180910390a160045490509695505050505050565b62000469620000ed60201b60201c565b73ffffffffffffffffffffffffffffffffffffffff166200048f620005f260201b60201c565b73ffffffffffffffffffffffffffffffffffffffff1614620004e8576040517f08c379a0000000000000000000000000000000000000000000000000000000008152600401620004df9062000ea8565b60405180910390fd5b6000600190505b848111620005ea57620005d486856002548151811062000538577f4e487b7100000000000000000000000000000000000000000000000000000000600052603260045260246000fd5b602002602001015185600254815181106200057c577f4e487b7100000000000000000000000000000000000000000000000000000000600052603260045260246000fd5b60200260200101518560025481518110620005c0577f4e487b7100000000000000000000000000000000000000000000000000000000600052603260045260246000fd5b60200260200101516200061b60201b60201c565b8080620005e1906200114f565b915050620004ef565b505050505050565b60008060009054906101000a900473ffffffffffffffffffffffffffffffffffffffff16905090565b6200062b620000ed60201b60201c565b73ffffffffffffffffffffffffffffffffffffffff1662000651620005f260201b60201c565b73ffffffffffffffffffffffffffffffffffffffff1614620006aa576040517f08c379a0000000000000000000000000000000000000000000000000000000008152600401620006a19062000ea8565b60405180910390fd5b6000835111620006f1576040517f08c379a0000000000000000000000000000000000000000000000000000000008152600401620006e89062000e64565b60405180910390fd5b600082511162000738576040517f08c379a00000000000000000000000000000000000000000000000000000000081526004016200072f9062000e86565b60405180910390fd5b60008151116200077f576040517f08c379a0000000000000000000000000000000000000000000000000000000008152600401620007769062000eca565b60405180910390fd5b6002600081548092919062000794906200114f565b91905055506040518060a00160405280858152602001600254815260200184815260200183815260200182815250600360006002548152602001908152602001600020600082015181600001556020820151816001015560408201518160020190805190602001906200080992919062000894565b5060608201518160030190805190602001906200082892919062000894565b5060808201518160040190805190602001906200084792919062000894565b509050507f7ce35c0f73b1638ea4d8fe1595048698e86ca1fa2ad0bd632b8ab64ecdbe54c1846002548585856040516200088695949392919062000fb5565b60405180910390a150505050565b828054620008a29062001119565b90600052602060002090601f016020900481019282620008c6576000855562000912565b82601f10620008e157805160ff191683800117855562000912565b8280016001018555821562000912579182015b8281111562000911578251825591602001919060010190620008f4565b5b50905062000921919062000925565b5090565b5b808211156200094057600081600090555060010162000926565b5090565b60006200095b62000955846200105b565b62001027565b9050808382526020820190508260005b858110156200099f578151850162000984888262000a1b565b8452602084019350602083019250506001810190506200096b565b5050509392505050565b6000620009c0620009ba846200108a565b62001027565b905082815260208101848484011115620009d957600080fd5b620009e6848285620010e3565b509392505050565b600082601f83011262000a0057600080fd5b815162000a1284826020860162000944565b91505092915050565b600082601f83011262000a2d57600080fd5b815162000a3f848260208601620009a9565b91505092915050565b60008151905062000a59816200123b565b92915050565b6000806000806000806000806000806101408b8d03121562000a8057600080fd5b60008b015167ffffffffffffffff81111562000a9b57600080fd5b62000aa98d828e0162000a1b565b9a505060208b015167ffffffffffffffff81111562000ac757600080fd5b62000ad58d828e0162000a1b565b99505060408b015167ffffffffffffffff81111562000af357600080fd5b62000b018d828e0162000a1b565b98505060608b015167ffffffffffffffff81111562000b1f57600080fd5b62000b2d8d828e0162000a1b565b97505060808b015167ffffffffffffffff81111562000b4b57600080fd5b62000b598d828e0162000a1b565b96505060a08b015167ffffffffffffffff81111562000b7757600080fd5b62000b858d828e0162000a1b565b95505060c062000b988d828e0162000a48565b94505060e08b015167ffffffffffffffff81111562000bb657600080fd5b62000bc48d828e01620009ee565b9350506101008b015167ffffffffffffffff81111562000be357600080fd5b62000bf18d828e01620009ee565b9250506101208b015167ffffffffffffffff81111562000c1057600080fd5b62000c1e8d828e01620009ee565b9150509295989b9194979a5092959850565b600062000c3d82620010bd565b62000c498185620010c8565b935062000c5b818560208601620010e3565b62000c66816200122a565b840191505092915050565b600062000c80602783620010c8565b91507f4461696c794a6f75726e616c3a20737461727454696d6520697320656d70747960008301527f20737472696e67000000000000000000000000000000000000000000000000006020830152604082019050919050565b600062000ce8602583620010c8565b91507f4461696c794a6f75726e616c3a20656e6454696d6520697320656d707479207360008301527f7472696e670000000000000000000000000000000000000000000000000000006020830152604082019050919050565b600062000d50602083620010c8565b91507f4f776e61626c653a2063616c6c6572206973206e6f7420746865206f776e65726000830152602082019050919050565b600062000d92602283620010c8565b91507f4461696c794a6f75726e616c3a206461746520697320656d707479207374726960008301527f6e670000000000000000000000000000000000000000000000000000000000006020830152604082019050919050565b600062000dfa602183620010c8565b91507f4461696c794a6f75726e616c3a2064617920697320656d70747920737472696e60008301527f67000000000000000000000000000000000000000000000000000000000000006020830152604082019050919050565b62000e5e81620010d9565b82525050565b6000602082019050818103600083015262000e7f8162000c71565b9050919050565b6000602082019050818103600083015262000ea18162000cd9565b9050919050565b6000602082019050818103600083015262000ec38162000d41565b9050919050565b6000602082019050818103600083015262000ee58162000d83565b9050919050565b6000602082019050818103600083015262000f078162000deb565b9050919050565b600060e08201905062000f25600083018a62000e53565b818103602083015262000f39818962000c30565b9050818103604083015262000f4f818862000c30565b9050818103606083015262000f65818762000c30565b9050818103608083015262000f7b818662000c30565b905081810360a083015262000f91818562000c30565b905081810360c083015262000fa7818462000c30565b905098975050505050505050565b600060a08201905062000fcc600083018862000e53565b62000fdb602083018762000e53565b818103604083015262000fef818662000c30565b9050818103606083015262001005818562000c30565b905081810360808301526200101b818462000c30565b90509695505050505050565b6000604051905081810181811067ffffffffffffffff82111715620010515762001050620011fb565b5b8060405250919050565b600067ffffffffffffffff821115620010795762001078620011fb565b5b602082029050602081019050919050565b600067ffffffffffffffff821115620010a857620010a7620011fb565b5b601f19601f8301169050602081019050919050565b600081519050919050565b600082825260208201905092915050565b6000819050919050565b60005b8381101562001103578082015181840152602081019050620010e6565b8381111562001113576000848401525b50505050565b600060028204905060018216806200113257607f821691505b60208210811415620011495762001148620011cc565b5b50919050565b60006200115c82620010d9565b91507fffffffffffffffffffffffffffffffffffffffffffffffffffffffffffffffff8214156200119257620011916200119d565b5b600182019050919050565b7f4e487b7100000000000000000000000000000000000000000000000000000000600052601160045260246000fd5b7f4e487b7100000000000000000000000000000000000000000000000000000000600052602260045260246000fd5b7f4e487b7100000000000000000000000000000000000000000000000000000000600052604160045260246000fd5b6000601f19601f8301169050919050565b6200124681620010d9565b81146200125257600080fd5b50565b61198180620012656000396000f3fe608060405234801561001057600080fd5b506004361061009e5760003560e01c80638da5cb5b116100665780638da5cb5b1461014d578063b11fd83f1461016b578063b30906d414610187578063b6cb58a5146101bd578063f2fde38b146101db5761009e565b806306fdde03146100a35780630cbb0f83146100c157806329a9857e146100df578063715018a61461010f5780638d97767214610119575b600080fd5b6100ab6101f7565b6040516100b8919061150b565b60405180910390f35b6100c9610285565b6040516100d691906115ed565b60405180910390f35b6100f960048036038101906100f4919061106e565b61028b565b60405161010691906115ed565b60405180910390f35b610117610502565b005b610133600480360381019061012e9190611187565b61058a565b6040516101449594939291906116a1565b60405180910390f35b610155610758565b60405161016291906114f0565b60405180910390f35b610185600480360381019061018091906111b0565b610781565b005b6101a1600480360381019061019c9190611187565b6109d4565b6040516101b49796959493929190611608565b60405180910390f35b6101c5610d46565b6040516101d291906115ed565b60405180910390f35b6101f560048036038101906101f09190611045565b610d4c565b005b6001805461020490611804565b80601f016020809104026020016040519081016040528092919081815260200182805461023090611804565b801561027d5780601f106102525761010080835404028352916020019161027d565b820191906000526020600020905b81548152906001019060200180831161026057829003601f168201915b505050505081565b60045481565b6000610295610e44565b73ffffffffffffffffffffffffffffffffffffffff166102b3610758565b73ffffffffffffffffffffffffffffffffffffffff1614610309576040517f08c379a00000000000000000000000000000000000000000000000000000000081526004016103009061158d565b60405180910390fd5b600083511161034d576040517f08c379a0000000000000000000000000000000000000000000000000000000008152600401610344906115cd565b60405180910390fd5b6000825111610391576040517f08c379a0000000000000000000000000000000000000000000000000000000008152600401610388906115ad565b60405180910390fd5b600460008154809291906103a490611836565b91905055506040518060e00160405280600454815260200188815260200187815260200186815260200185815260200184815260200183815250600560006004548152602001908152602001600020600082015181600001556020820151816001019080519060200190610419929190610f10565b506040820151816002019080519060200190610436929190610f10565b506060820151816003019080519060200190610453929190610f10565b506080820151816004019080519060200190610470929190610f10565b5060a082015181600501908051906020019061048d929190610f10565b5060c08201518160060190805190602001906104aa929190610f10565b509050507f95ce4b2c4338741d4541edd1b50f7ec76a089a4f9d525ddcd67d05442448df686004548888888888886040516104eb9796959493929190611608565b60405180910390a160045490509695505050505050565b61050a610e44565b73ffffffffffffffffffffffffffffffffffffffff16610528610758565b73ffffffffffffffffffffffffffffffffffffffff161461057e576040517f08c379a00000000000000000000000000000000000000000000000000000000081526004016105759061158d565b60405180910390fd5b6105886000610e4c565b565b60036020528060005260406000206000915090508060000154908060010154908060020180546105b990611804565b80601f01602080910402602001604051908101604052809291908181526020018280546105e590611804565b80156106325780601f1061060757610100808354040283529160200191610632565b820191906000526020600020905b81548152906001019060200180831161061557829003601f168201915b50505050509080600301805461064790611804565b80601f016020809104026020016040519081016040528092919081815260200182805461067390611804565b80156106c05780601f10610695576101008083540402835291602001916106c0565b820191906000526020600020905b8154815290600101906020018083116106a357829003601f168201915b5050505050908060040180546106d590611804565b80601f016020809104026020016040519081016040528092919081815260200182805461070190611804565b801561074e5780601f106107235761010080835404028352916020019161074e565b820191906000526020600020905b81548152906001019060200180831161073157829003601f168201915b5050505050905085565b60008060009054906101000a900473ffffffffffffffffffffffffffffffffffffffff16905090565b610789610e44565b73ffffffffffffffffffffffffffffffffffffffff166107a7610758565b73ffffffffffffffffffffffffffffffffffffffff16146107fd576040517f08c379a00000000000000000000000000000000000000000000000000000000081526004016107f49061158d565b60405180910390fd5b6000835111610841576040517f08c379a00000000000000000000000000000000000000000000000000000000081526004016108389061152d565b60405180910390fd5b6000825111610885576040517f08c379a000000000000000000000000000000000000000000000000000000000815260040161087c9061156d565b60405180910390fd5b60008151116108c9576040517f08c379a00000000000000000000000000000000000000000000000000000000081526004016108c0906115ad565b60405180910390fd5b600260008154809291906108dc90611836565b91905055506040518060a001604052808581526020016002548152602001848152602001838152602001828152506003600060025481526020019081526020016000206000820151816000015560208201518160010155604082015181600201908051906020019061094f929190610f10565b50606082015181600301908051906020019061096c929190610f10565b506080820151816004019080519060200190610989929190610f10565b509050507f7ce35c0f73b1638ea4d8fe1595048698e86ca1fa2ad0bd632b8ab64ecdbe54c1846002548585856040516109c69594939291906116a1565b60405180910390a150505050565b60056020528060005260406000206000915090508060000154908060010180546109fd90611804565b80601f0160208091040260200160405190810160405280929190818152602001828054610a2990611804565b8015610a765780601f10610a4b57610100808354040283529160200191610a76565b820191906000526020600020905b815481529060010190602001808311610a5957829003601f168201915b505050505090806002018054610a8b90611804565b80601f0160208091040260200160405190810160405280929190818152602001828054610ab790611804565b8015610b045780601f10610ad957610100808354040283529160200191610b04565b820191906000526020600020905b815481529060010190602001808311610ae757829003601f168201915b505050505090806003018054610b1990611804565b80601f0160208091040260200160405190810160405280929190818152602001828054610b4590611804565b8015610b925780601f10610b6757610100808354040283529160200191610b92565b820191906000526020600020905b815481529060010190602001808311610b7557829003601f168201915b505050505090806004018054610ba790611804565b80601f0160208091040260200160405190810160405280929190818152602001828054610bd390611804565b8015610c205780601f10610bf557610100808354040283529160200191610c20565b820191906000526020600020905b815481529060010190602001808311610c0357829003601f168201915b505050505090806005018054610c3590611804565b80601f0160208091040260200160405190810160405280929190818152602001828054610c6190611804565b8015610cae5780601f10610c8357610100808354040283529160200191610cae565b820191906000526020600020905b815481529060010190602001808311610c9157829003601f168201915b505050505090806006018054610cc390611804565b80601f0160208091040260200160405190810160405280929190818152602001828054610cef90611804565b8015610d3c5780601f10610d1157610100808354040283529160200191610d3c565b820191906000526020600020905b815481529060010190602001808311610d1f57829003601f168201915b5050505050905087565b60025481565b610d54610e44565b73ffffffffffffffffffffffffffffffffffffffff16610d72610758565b73ffffffffffffffffffffffffffffffffffffffff1614610dc8576040517f08c379a0000000000000000000000000000000000000000000000000000000008152600401610dbf9061158d565b60405180910390fd5b600073ffffffffffffffffffffffffffffffffffffffff168173ffffffffffffffffffffffffffffffffffffffff161415610e38576040517f08c379a0000000000000000000000000000000000000000000000000000000008152600401610e2f9061154d565b60405180910390fd5b610e4181610e4c565b50565b600033905090565b60008060009054906101000a900473ffffffffffffffffffffffffffffffffffffffff169050816000806101000a81548173ffffffffffffffffffffffffffffffffffffffff021916908373ffffffffffffffffffffffffffffffffffffffff1602179055508173ffffffffffffffffffffffffffffffffffffffff168173ffffffffffffffffffffffffffffffffffffffff167f8be0079c531659141344cd1fd0a4f28419497f9722a3daafe3b4186f6b6457e060405160405180910390a35050565b828054610f1c90611804565b90600052602060002090601f016020900481019282610f3e5760008555610f85565b82601f10610f5757805160ff1916838001178555610f85565b82800160010185558215610f85579182015b82811115610f84578251825591602001919060010190610f69565b5b509050610f929190610f96565b5090565b5b80821115610faf576000816000905550600101610f97565b5090565b6000610fc6610fc18461173a565b611709565b905082815260208101848484011115610fde57600080fd5b610fe98482856117c2565b509392505050565b6000813590506110008161191d565b92915050565b600082601f83011261101757600080fd5b8135611027848260208601610fb3565b91505092915050565b60008135905061103f81611934565b92915050565b60006020828403121561105757600080fd5b600061106584828501610ff1565b91505092915050565b60008060008060008060c0878903121561108757600080fd5b600087013567ffffffffffffffff8111156110a157600080fd5b6110ad89828a01611006565b965050602087013567ffffffffffffffff8111156110ca57600080fd5b6110d689828a01611006565b955050604087013567ffffffffffffffff8111156110f357600080fd5b6110ff89828a01611006565b945050606087013567ffffffffffffffff81111561111c57600080fd5b61112889828a01611006565b935050608087013567ffffffffffffffff81111561114557600080fd5b61115189828a01611006565b92505060a087013567ffffffffffffffff81111561116e57600080fd5b61117a89828a01611006565b9150509295509295509295565b60006020828403121561119957600080fd5b60006111a784828501611030565b91505092915050565b600080600080608085870312156111c657600080fd5b60006111d487828801611030565b945050602085013567ffffffffffffffff8111156111f157600080fd5b6111fd87828801611006565b935050604085013567ffffffffffffffff81111561121a57600080fd5b61122687828801611006565b925050606085013567ffffffffffffffff81111561124357600080fd5b61124f87828801611006565b91505092959194509250565b61126481611786565b82525050565b60006112758261176a565b61127f8185611775565b935061128f8185602086016117d1565b6112988161190c565b840191505092915050565b60006112b0602783611775565b91507f4461696c794a6f75726e616c3a20737461727454696d6520697320656d70747960008301527f20737472696e67000000000000000000000000000000000000000000000000006020830152604082019050919050565b6000611316602683611775565b91507f4f776e61626c653a206e6577206f776e657220697320746865207a65726f206160008301527f64647265737300000000000000000000000000000000000000000000000000006020830152604082019050919050565b600061137c602583611775565b91507f4461696c794a6f75726e616c3a20656e6454696d6520697320656d707479207360008301527f7472696e670000000000000000000000000000000000000000000000000000006020830152604082019050919050565b60006113e2602083611775565b91507f4f776e61626c653a2063616c6c6572206973206e6f7420746865206f776e65726000830152602082019050919050565b6000611422602283611775565b91507f4461696c794a6f75726e616c3a206461746520697320656d707479207374726960008301527f6e670000000000000000000000000000000000000000000000000000000000006020830152604082019050919050565b6000611488602183611775565b91507f4461696c794a6f75726e616c3a2064617920697320656d70747920737472696e60008301527f67000000000000000000000000000000000000000000000000000000000000006020830152604082019050919050565b6114ea816117b8565b82525050565b6000602082019050611505600083018461125b565b92915050565b60006020820190508181036000830152611525818461126a565b905092915050565b60006020820190508181036000830152611546816112a3565b9050919050565b6000602082019050818103600083015261156681611309565b9050919050565b600060208201905081810360008301526115868161136f565b9050919050565b600060208201905081810360008301526115a6816113d5565b9050919050565b600060208201905081810360008301526115c681611415565b9050919050565b600060208201905081810360008301526115e68161147b565b9050919050565b600060208201905061160260008301846114e1565b92915050565b600060e08201905061161d600083018a6114e1565b818103602083015261162f818961126a565b90508181036040830152611643818861126a565b90508181036060830152611657818761126a565b9050818103608083015261166b818661126a565b905081810360a083015261167f818561126a565b905081810360c0830152611693818461126a565b905098975050505050505050565b600060a0820190506116b660008301886114e1565b6116c360208301876114e1565b81810360408301526116d5818661126a565b905081810360608301526116e9818561126a565b905081810360808301526116fd818461126a565b90509695505050505050565b6000604051905081810181811067ffffffffffffffff821117156117305761172f6118dd565b5b8060405250919050565b600067ffffffffffffffff821115611755576117546118dd565b5b601f19601f8301169050602081019050919050565b600081519050919050565b600082825260208201905092915050565b600061179182611798565b9050919050565b600073ffffffffffffffffffffffffffffffffffffffff82169050919050565b6000819050919050565b82818337600083830152505050565b60005b838110156117ef5780820151818401526020810190506117d4565b838111156117fe576000848401525b50505050565b6000600282049050600182168061181c57607f821691505b602082108114156118305761182f6118ae565b5b50919050565b6000611841826117b8565b91507fffffffffffffffffffffffffffffffffffffffffffffffffffffffffffffffff8214156118745761187361187f565b5b600182019050919050565b7f4e487b7100000000000000000000000000000000000000000000000000000000600052601160045260246000fd5b7f4e487b7100000000000000000000000000000000000000000000000000000000600052602260045260246000fd5b7f4e487b7100000000000000000000000000000000000000000000000000000000600052604160045260246000fd5b6000601f19601f8301169050919050565b61192681611786565b811461193157600080fd5b50565b61193d816117b8565b811461194857600080fd5b5056fea2646970667358221220b813672ec5168b7ce0aa0a99efde3c471fa37f8f1ef5b30ece23acdeab33ac4c64736f6c63430008000033",
  "immutableReferences": {},
  "source": "// SPDX-License-Identifier: MIT\r\npragma solidity 0.8.0;\r\n\r\nimport '@openzeppelin/contracts/access/Ownable.sol';\r\n\r\ncontract DailyJournal is Ownable {\r\n  string public name = \"Gregg`s Daily Journal\";\r\n\r\n  uint256 public taskCount = 0;\r\n  mapping(uint256 => Task) public tasks;\r\n\r\n  uint256 public entryCount = 0;\r\n  mapping(uint256 => Entry) public entries;\r\n\r\n  struct Task {\r\n    uint256 entryId;\r\n    uint256 id;\r\n    string startTime;\r\n    string endTime;\r\n    string description;\r\n  }\r\n\r\n  struct Entry {\r\n    uint256 id;\r\n    string breakfast;\r\n    string lunch;\r\n    string dinner;\r\n    string meditation;\r\n    string day;\r\n    string date;\r\n  }\r\n\r\n  event TaskCreated(\r\n    uint256 entryId,\r\n    uint256 id,\r\n    string startTime,\r\n    string endTime,\r\n    string description\r\n  );\r\n\r\n  event EntryCreated(\r\n    uint256 id, \r\n    string breakfast,\r\n    string lunch,\r\n    string dinner,\r\n    string meditation,\r\n    string day,\r\n    string date\r\n  );\r\n\r\n  constructor(\r\n    string memory _breakfast,\r\n    string memory _lunch,\r\n    string memory _dinner,\r\n    string memory _meditation,\r\n    string memory _day,\r\n    string memory _date, \r\n    uint256 _taskCount,\r\n    string[] memory _startTime,\r\n    string[] memory _endTime,\r\n    string[] memory _description\r\n  ) \r\n  {\r\n    createEntry(_breakfast, _lunch, _dinner, _meditation, _day, _date);\r\n    createTasks(entryCount, _taskCount, _startTime, _endTime, _description);\r\n  }\r\n\r\n  function createEntry(\r\n    string memory _breakfast,\r\n    string memory _lunch,\r\n    string memory _dinner,\r\n    string memory _meditation,\r\n    string memory _day,\r\n    string memory _date\r\n  ) \r\n    public onlyOwner() returns(uint256 _id)\r\n  {\r\n    require(bytes(_day).length > 0, 'DailyJournal: day is empty string');\r\n    require(bytes(_date).length > 0, 'DailyJournal: date is empty string');\r\n\r\n    entryCount++;\r\n\r\n    entries[entryCount] = Entry(entryCount,_breakfast, _lunch, _dinner, _meditation, _day, _date);\r\n\r\n    emit EntryCreated(entryCount, _breakfast, _lunch, _dinner, _meditation, _day, _date);\r\n\r\n    return entryCount;\r\n  }\r\n\r\n  function createTasks(\r\n    uint256 _entryId,\r\n    uint256 _numOfTasks, \r\n    string[] memory _startTime, \r\n    string[] memory _endTime, \r\n    string[] memory _description\r\n  ) \r\n    internal onlyOwner() \r\n  {\r\n\r\n    for(uint256 i=1; i<=_numOfTasks; i++) {\r\n      createTask(_entryId, _startTime[taskCount], _endTime[taskCount], _description[taskCount]);\r\n    }\r\n\r\n  }\r\n\r\n  function createTask(\r\n    uint256 _entryId,\r\n    string memory _startTime,\r\n    string memory _endTime,\r\n    string memory _description\r\n  ) \r\n    public onlyOwner() \r\n  {\r\n    require(bytes(_startTime).length > 0, 'DailyJournal: startTime is empty string');\r\n    require(bytes(_endTime).length > 0, 'DailyJournal: endTime is empty string');\r\n    require(bytes(_description).length > 0, 'DailyJournal: date is empty string');\r\n\r\n    taskCount++;\r\n\r\n    tasks[taskCount] = Task(_entryId, taskCount, _startTime, _endTime, _description);\r\n\r\n    emit TaskCreated(_entryId, taskCount, _startTime, _endTime, _description);\r\n  }\r\n\r\n}",
  "sourcePath": "C:\\Users\\Gregg\\OneDrive\\Projects\\Personal Projects\\Daily Journal\\src\\contracts\\DailyJournal.sol",
  "compiler": {
    "name": "solc",
    "version": "0.8.0+commit.c7dfd78e.Emscripten.clang"
  },
  "schemaVersion": "3.4.4",
  "updatedAt": "2022-02-10T18:05:59.211Z",
  "networkType": "ethereum",
  "devdoc": {
    "kind": "dev",
    "methods": {
      "owner()": {
        "details": "Returns the address of the current owner."
      },
      "renounceOwnership()": {
        "details": "Leaves the contract without owner. It will not be possible to call `onlyOwner` functions anymore. Can only be called by the current owner. NOTE: Renouncing ownership will leave the contract without an owner, thereby removing any functionality that is only available to the owner."
      },
      "transferOwnership(address)": {
        "details": "Transfers ownership of the contract to a new account (`newOwner`). Can only be called by the current owner."
      }
    },
    "version": 1
  },
  "userdoc": {
    "kind": "user",
    "methods": {},
    "version": 1
  }
}