{
  "contractName": "DailyJournal",
  "abi": [
    {
      "inputs": [
        {
          "internalType": "uint256",
          "name": "_date",
          "type": "uint256"
        },
        {
          "internalType": "uint256",
          "name": "_startTime",
          "type": "uint256"
        },
        {
          "internalType": "uint256",
          "name": "_endTime",
          "type": "uint256"
        },
        {
          "internalType": "string",
          "name": "_description",
          "type": "string"
        }
      ],
      "stateMutability": "nonpayable",
      "type": "constructor"
    },
    {
      "inputs": [
        {
          "internalType": "uint256",
          "name": "",
          "type": "uint256"
        }
      ],
      "name": "entries",
      "outputs": [
        {
          "internalType": "uint256",
          "name": "date",
          "type": "uint256"
        },
        {
          "internalType": "uint256",
          "name": "startTime",
          "type": "uint256"
        },
        {
          "internalType": "uint256",
          "name": "endTime",
          "type": "uint256"
        },
        {
          "internalType": "string",
          "name": "description",
          "type": "string"
        }
      ],
      "stateMutability": "view",
      "type": "function",
      "constant": true
    },
    {
      "inputs": [],
      "name": "entryCount",
      "outputs": [
        {
          "internalType": "uint256",
          "name": "",
          "type": "uint256"
        }
      ],
      "stateMutability": "view",
      "type": "function",
      "constant": true
    },
    {
      "inputs": [],
      "name": "name",
      "outputs": [
        {
          "internalType": "string",
          "name": "",
          "type": "string"
        }
      ],
      "stateMutability": "view",
      "type": "function",
      "constant": true
    },
    {
      "inputs": [
        {
          "internalType": "uint256",
          "name": "_date",
          "type": "uint256"
        },
        {
          "internalType": "uint256",
          "name": "_startTime",
          "type": "uint256"
        },
        {
          "internalType": "uint256",
          "name": "_endTime",
          "type": "uint256"
        },
        {
          "internalType": "string",
          "name": "_description",
          "type": "string"
        }
      ],
      "name": "createEntry",
      "outputs": [],
      "stateMutability": "nonpayable",
      "type": "function"
    }
  ],
  "bytecode": "0x60806040526040518060400160405280601581526020017f47726567672773204461696c79204a6f75726e616c0000000000000000000000815250600090805190602001906200005192919062000144565b5060006001553480156200006457600080fd5b5060405162000c6838038062000c6883398181016040528101906200008a91906200027d565b6200009e84848484620000a860201b60201c565b50505050620004d4565b600060405180608001604052808681526020018581526020018481526020018381525090508060026000600154815260200190815260200160002060008201518160000155602082015181600101556040820151816002015560608201518160030190805190602001906200011f92919062000144565b50905050600160008154809291906200013890620003df565b91905055505050505050565b8280546200015290620003a9565b90600052602060002090601f016020900481019282620001765760008555620001c2565b82601f106200019157805160ff1916838001178555620001c2565b82800160010185558215620001c2579182015b82811115620001c1578251825591602001919060010190620001a4565b5b509050620001d19190620001d5565b5090565b5b80821115620001f0576000816000905550600101620001d6565b5090565b60006200020b620002058462000336565b62000302565b9050828152602081018484840111156200022457600080fd5b6200023184828562000373565b509392505050565b600082601f8301126200024b57600080fd5b81516200025d848260208601620001f4565b91505092915050565b6000815190506200027781620004ba565b92915050565b600080600080608085870312156200029457600080fd5b6000620002a48782880162000266565b9450506020620002b78782880162000266565b9350506040620002ca8782880162000266565b925050606085015167ffffffffffffffff811115620002e857600080fd5b620002f68782880162000239565b91505092959194509250565b6000604051905081810181811067ffffffffffffffff821117156200032c576200032b6200048b565b5b8060405250919050565b600067ffffffffffffffff8211156200035457620003536200048b565b5b601f19601f8301169050602081019050919050565b6000819050919050565b60005b838110156200039357808201518184015260208101905062000376565b83811115620003a3576000848401525b50505050565b60006002820490506001821680620003c257607f821691505b60208210811415620003d957620003d86200045c565b5b50919050565b6000620003ec8262000369565b91507fffffffffffffffffffffffffffffffffffffffffffffffffffffffffffffffff8214156200042257620004216200042d565b5b600182019050919050565b7f4e487b7100000000000000000000000000000000000000000000000000000000600052601160045260246000fd5b7f4e487b7100000000000000000000000000000000000000000000000000000000600052602260045260246000fd5b7f4e487b7100000000000000000000000000000000000000000000000000000000600052604160045260246000fd5b620004c58162000369565b8114620004d157600080fd5b50565b61078480620004e46000396000f3fe608060405234801561001057600080fd5b506004361061004c5760003560e01c806306fdde03146100515780630cbb0f831461006f57806377cade141461008d578063b30906d4146100a9575b600080fd5b6100596100dc565b60405161006691906104cc565b60405180910390f35b61007761016a565b60405161008491906104ee565b60405180910390f35b6100a760048036038101906100a29190610409565b610170565b005b6100c360048036038101906100be91906103e0565b610208565b6040516100d39493929190610509565b60405180910390f35b600080546100e99061061e565b80601f01602080910402602001604051908101604052809291908181526020018280546101159061061e565b80156101625780601f1061013757610100808354040283529160200191610162565b820191906000526020600020905b81548152906001019060200180831161014557829003601f168201915b505050505081565b60015481565b600060405180608001604052808681526020018581526020018481526020018381525090508060026000600154815260200190815260200160002060008201518160000155602082015181600101556040820151816002015560608201518160030190805190602001906101e59291906102c0565b50905050600160008154809291906101fc90610650565b91905055505050505050565b600260205280600052604060002060009150905080600001549080600101549080600201549080600301805461023d9061061e565b80601f01602080910402602001604051908101604052809291908181526020018280546102699061061e565b80156102b65780601f1061028b576101008083540402835291602001916102b6565b820191906000526020600020905b81548152906001019060200180831161029957829003601f168201915b5050505050905084565b8280546102cc9061061e565b90600052602060002090601f0160209004810192826102ee5760008555610335565b82601f1061030757805160ff1916838001178555610335565b82800160010185558215610335579182015b82811115610334578251825591602001919060010190610319565b5b5090506103429190610346565b5090565b5b8082111561035f576000816000905550600101610347565b5090565b600061037661037184610586565b610555565b90508281526020810184848401111561038e57600080fd5b6103998482856105dc565b509392505050565b600082601f8301126103b257600080fd5b81356103c2848260208601610363565b91505092915050565b6000813590506103da81610737565b92915050565b6000602082840312156103f257600080fd5b6000610400848285016103cb565b91505092915050565b6000806000806080858703121561041f57600080fd5b600061042d878288016103cb565b945050602061043e878288016103cb565b935050604061044f878288016103cb565b925050606085013567ffffffffffffffff81111561046c57600080fd5b610478878288016103a1565b91505092959194509250565b600061048f826105b6565b61049981856105c1565b93506104a98185602086016105eb565b6104b281610726565b840191505092915050565b6104c6816105d2565b82525050565b600060208201905081810360008301526104e68184610484565b905092915050565b600060208201905061050360008301846104bd565b92915050565b600060808201905061051e60008301876104bd565b61052b60208301866104bd565b61053860408301856104bd565b818103606083015261054a8184610484565b905095945050505050565b6000604051905081810181811067ffffffffffffffff8211171561057c5761057b6106f7565b5b8060405250919050565b600067ffffffffffffffff8211156105a1576105a06106f7565b5b601f19601f8301169050602081019050919050565b600081519050919050565b600082825260208201905092915050565b6000819050919050565b82818337600083830152505050565b60005b838110156106095780820151818401526020810190506105ee565b83811115610618576000848401525b50505050565b6000600282049050600182168061063657607f821691505b6020821081141561064a576106496106c8565b5b50919050565b600061065b826105d2565b91507fffffffffffffffffffffffffffffffffffffffffffffffffffffffffffffffff82141561068e5761068d610699565b5b600182019050919050565b7f4e487b7100000000000000000000000000000000000000000000000000000000600052601160045260246000fd5b7f4e487b7100000000000000000000000000000000000000000000000000000000600052602260045260246000fd5b7f4e487b7100000000000000000000000000000000000000000000000000000000600052604160045260246000fd5b6000601f19601f8301169050919050565b610740816105d2565b811461074b57600080fd5b5056fea2646970667358221220f0f6ce589aa285d5f77554c1f6940b156cd02ef280de0dac087b2b840e7219c364736f6c63430008000033",
  "immutableReferences": {},
  "source": "// SPDX-License-Identifier: MIT\r\npragma solidity 0.8.0;\r\n\r\ncontract DailyJournal {\r\n  string public name = \"Gregg's Daily Journal\";\r\n  uint256 public entryCount = 0;\r\n  mapping(uint256 => Entry) public entries;\r\n\r\n  struct Entry {\r\n    uint256 date;\r\n    uint256 startTime;\r\n    uint256 endTime;\r\n    string description;\r\n  }\r\n\r\n  constructor(uint256 _date, uint256 _startTime, uint256 _endTime, string memory _description) {\r\n    createEntry(_date, _startTime, _endTime, _description);\r\n  }\r\n\r\n  function createEntry(uint256 _date, uint256 _startTime, uint256 _endTime, string memory _description) public {\r\n    Entry memory entry = Entry(_date, _startTime, _endTime, _description);\r\n    entries[entryCount] = entry;\r\n    entryCount++;\r\n  }\r\n\r\n  \r\n}",
  "sourcePath": "C:\\Users\\Gregg\\OneDrive\\Projects\\Personal Projects\\Daily Journal\\src\\contracts\\DailyJournal.sol",
  "compiler": {
    "name": "solc",
    "version": "0.8.0+commit.c7dfd78e.Emscripten.clang"
  },
  "schemaVersion": "3.4.4",
  "updatedAt": "2022-02-08T18:52:15.802Z",
  "networkType": "ethereum",
  "devdoc": {
    "kind": "dev",
    "methods": {},
    "version": 1
  },
  "userdoc": {
    "kind": "user",
    "methods": {},
    "version": 1
  }
}