{
  "contractName": "DailyJournal",
  "abi": [
    {
      "inputs": [
        {
          "internalType": "uint256",
          "name": "_date",
          "type": "uint256"
        },
        {
          "internalType": "uint256",
          "name": "_startTime",
          "type": "uint256"
        },
        {
          "internalType": "uint256",
          "name": "_endTime",
          "type": "uint256"
        },
        {
          "internalType": "string",
          "name": "_description",
          "type": "string"
        }
      ],
      "stateMutability": "nonpayable",
      "type": "constructor"
    },
    {
      "anonymous": false,
      "inputs": [
        {
          "indexed": false,
          "internalType": "uint256",
          "name": "id",
          "type": "uint256"
        },
        {
          "indexed": false,
          "internalType": "uint256",
          "name": "date",
          "type": "uint256"
        },
        {
          "indexed": false,
          "internalType": "uint256",
          "name": "startTime",
          "type": "uint256"
        },
        {
          "indexed": false,
          "internalType": "uint256",
          "name": "endTime",
          "type": "uint256"
        },
        {
          "indexed": false,
          "internalType": "string",
          "name": "description",
          "type": "string"
        }
      ],
      "name": "EntryCreated",
      "type": "event"
    },
    {
      "anonymous": false,
      "inputs": [
        {
          "indexed": true,
          "internalType": "address",
          "name": "previousOwner",
          "type": "address"
        },
        {
          "indexed": true,
          "internalType": "address",
          "name": "newOwner",
          "type": "address"
        }
      ],
      "name": "OwnershipTransferred",
      "type": "event"
    },
    {
      "inputs": [
        {
          "internalType": "uint256",
          "name": "",
          "type": "uint256"
        }
      ],
      "name": "entries",
      "outputs": [
        {
          "internalType": "uint256",
          "name": "id",
          "type": "uint256"
        },
        {
          "internalType": "uint256",
          "name": "date",
          "type": "uint256"
        },
        {
          "internalType": "uint256",
          "name": "startTime",
          "type": "uint256"
        },
        {
          "internalType": "uint256",
          "name": "endTime",
          "type": "uint256"
        },
        {
          "internalType": "string",
          "name": "description",
          "type": "string"
        }
      ],
      "stateMutability": "view",
      "type": "function",
      "constant": true
    },
    {
      "inputs": [],
      "name": "entryCount",
      "outputs": [
        {
          "internalType": "uint256",
          "name": "",
          "type": "uint256"
        }
      ],
      "stateMutability": "view",
      "type": "function",
      "constant": true
    },
    {
      "inputs": [],
      "name": "name",
      "outputs": [
        {
          "internalType": "string",
          "name": "",
          "type": "string"
        }
      ],
      "stateMutability": "view",
      "type": "function",
      "constant": true
    },
    {
      "inputs": [],
      "name": "owner",
      "outputs": [
        {
          "internalType": "address",
          "name": "",
          "type": "address"
        }
      ],
      "stateMutability": "view",
      "type": "function",
      "constant": true
    },
    {
      "inputs": [],
      "name": "renounceOwnership",
      "outputs": [],
      "stateMutability": "nonpayable",
      "type": "function"
    },
    {
      "inputs": [
        {
          "internalType": "address",
          "name": "newOwner",
          "type": "address"
        }
      ],
      "name": "transferOwnership",
      "outputs": [],
      "stateMutability": "nonpayable",
      "type": "function"
    },
    {
      "inputs": [
        {
          "internalType": "uint256",
          "name": "_date",
          "type": "uint256"
        },
        {
          "internalType": "uint256",
          "name": "_startTime",
          "type": "uint256"
        },
        {
          "internalType": "uint256",
          "name": "_endTime",
          "type": "uint256"
        },
        {
          "internalType": "string",
          "name": "_description",
          "type": "string"
        }
      ],
      "name": "createEntry",
      "outputs": [],
      "stateMutability": "nonpayable",
      "type": "function"
    }
  ],
  "bytecode": "0x60806040526040518060400160405280601581526020017f47726567672773204461696c79204a6f75726e616c0000000000000000000000815250600190805190602001906200005192919062000337565b5060006002553480156200006457600080fd5b50604051620015013803806200150183398181016040528101906200008a919062000470565b620000aa6200009e620000c860201b60201c565b620000d060201b60201c565b620000be848484846200019460201b60201c565b505050506200080e565b600033905090565b60008060009054906101000a900473ffffffffffffffffffffffffffffffffffffffff169050816000806101000a81548173ffffffffffffffffffffffffffffffffffffffff021916908373ffffffffffffffffffffffffffffffffffffffff1602179055508173ffffffffffffffffffffffffffffffffffffffff168173ffffffffffffffffffffffffffffffffffffffff167f8be0079c531659141344cd1fd0a4f28419497f9722a3daafe3b4186f6b6457e060405160405180910390a35050565b620001a4620000c860201b60201c565b73ffffffffffffffffffffffffffffffffffffffff16620001ca6200030e60201b60201c565b73ffffffffffffffffffffffffffffffffffffffff161462000223576040517f08c379a00000000000000000000000000000000000000000000000000000000081526004016200021a9062000589565b60405180910390fd5b60026000815480929190620002389062000708565b91905055506040518060a00160405280600254815260200185815260200184815260200183815260200182815250600360006002548152602001908152602001600020600082015181600001556020820151816001015560408201518160020155606082015181600301556080820151816004019080519060200190620002c192919062000337565b509050507fe160a949e6f595fd871aef4223f0465e58c9188d0cbb256d4241c63915e4dc7c6002548585858560405162000300959493929190620005ab565b60405180910390a150505050565b60008060009054906101000a900473ffffffffffffffffffffffffffffffffffffffff16905090565b8280546200034590620006d2565b90600052602060002090601f016020900481019282620003695760008555620003b5565b82601f106200038457805160ff1916838001178555620003b5565b82800160010185558215620003b5579182015b82811115620003b457825182559160200191906001019062000397565b5b509050620003c49190620003c8565b5090565b5b80821115620003e3576000816000905550600101620003c9565b5090565b6000620003fe620003f88462000643565b6200060f565b9050828152602081018484840111156200041757600080fd5b620004248482856200069c565b509392505050565b600082601f8301126200043e57600080fd5b815162000450848260208601620003e7565b91505092915050565b6000815190506200046a81620007f4565b92915050565b600080600080608085870312156200048757600080fd5b6000620004978782880162000459565b9450506020620004aa8782880162000459565b9350506040620004bd8782880162000459565b925050606085015167ffffffffffffffff811115620004db57600080fd5b620004e9878288016200042c565b91505092959194509250565b6000620005028262000676565b6200050e818562000681565b9350620005208185602086016200069c565b6200052b81620007e3565b840191505092915050565b60006200054560208362000681565b91507f4f776e61626c653a2063616c6c6572206973206e6f7420746865206f776e65726000830152602082019050919050565b620005838162000692565b82525050565b60006020820190508181036000830152620005a48162000536565b9050919050565b600060a082019050620005c2600083018862000578565b620005d1602083018762000578565b620005e0604083018662000578565b620005ef606083018562000578565b8181036080830152620006038184620004f5565b90509695505050505050565b6000604051905081810181811067ffffffffffffffff82111715620006395762000638620007b4565b5b8060405250919050565b600067ffffffffffffffff821115620006615762000660620007b4565b5b601f19601f8301169050602081019050919050565b600081519050919050565b600082825260208201905092915050565b6000819050919050565b60005b83811015620006bc5780820151818401526020810190506200069f565b83811115620006cc576000848401525b50505050565b60006002820490506001821680620006eb57607f821691505b6020821081141562000702576200070162000785565b5b50919050565b6000620007158262000692565b91507fffffffffffffffffffffffffffffffffffffffffffffffffffffffffffffffff8214156200074b576200074a62000756565b5b600182019050919050565b7f4e487b7100000000000000000000000000000000000000000000000000000000600052601160045260246000fd5b7f4e487b7100000000000000000000000000000000000000000000000000000000600052602260045260246000fd5b7f4e487b7100000000000000000000000000000000000000000000000000000000600052604160045260246000fd5b6000601f19601f8301169050919050565b620007ff8162000692565b81146200080b57600080fd5b50565b610ce3806200081e6000396000f3fe608060405234801561001057600080fd5b506004361061007d5760003560e01c806377cade141161005b57806377cade14146100c85780638da5cb5b146100e4578063b30906d414610102578063f2fde38b146101365761007d565b806306fdde03146100825780630cbb0f83146100a0578063715018a6146100be575b600080fd5b61008a610152565b6040516100979190610994565b60405180910390f35b6100a86101e0565b6040516100b591906109f6565b60405180910390f35b6100c66101e6565b005b6100e260048036038101906100dd9190610801565b61026e565b005b6100ec6103cf565b6040516100f99190610979565b60405180910390f35b61011c600480360381019061011791906107d8565b6103f8565b60405161012d959493929190610a11565b60405180910390f35b610150600480360381019061014b91906107af565b6104b6565b005b6001805461015f90610b66565b80601f016020809104026020016040519081016040528092919081815260200182805461018b90610b66565b80156101d85780601f106101ad576101008083540402835291602001916101d8565b820191906000526020600020905b8154815290600101906020018083116101bb57829003601f168201915b505050505081565b60025481565b6101ee6105ae565b73ffffffffffffffffffffffffffffffffffffffff1661020c6103cf565b73ffffffffffffffffffffffffffffffffffffffff1614610262576040517f08c379a0000000000000000000000000000000000000000000000000000000008152600401610259906109d6565b60405180910390fd5b61026c60006105b6565b565b6102766105ae565b73ffffffffffffffffffffffffffffffffffffffff166102946103cf565b73ffffffffffffffffffffffffffffffffffffffff16146102ea576040517f08c379a00000000000000000000000000000000000000000000000000000000081526004016102e1906109d6565b60405180910390fd5b600260008154809291906102fd90610b98565b91905055506040518060a0016040528060025481526020018581526020018481526020018381526020018281525060036000600254815260200190815260200160002060008201518160000155602082015181600101556040820151816002015560608201518160030155608082015181600401908051906020019061038492919061067a565b509050507fe160a949e6f595fd871aef4223f0465e58c9188d0cbb256d4241c63915e4dc7c600254858585856040516103c1959493929190610a11565b60405180910390a150505050565b60008060009054906101000a900473ffffffffffffffffffffffffffffffffffffffff16905090565b600360205280600052604060002060009150905080600001549080600101549080600201549080600301549080600401805461043390610b66565b80601f016020809104026020016040519081016040528092919081815260200182805461045f90610b66565b80156104ac5780601f10610481576101008083540402835291602001916104ac565b820191906000526020600020905b81548152906001019060200180831161048f57829003601f168201915b5050505050905085565b6104be6105ae565b73ffffffffffffffffffffffffffffffffffffffff166104dc6103cf565b73ffffffffffffffffffffffffffffffffffffffff1614610532576040517f08c379a0000000000000000000000000000000000000000000000000000000008152600401610529906109d6565b60405180910390fd5b600073ffffffffffffffffffffffffffffffffffffffff168173ffffffffffffffffffffffffffffffffffffffff1614156105a2576040517f08c379a0000000000000000000000000000000000000000000000000000000008152600401610599906109b6565b60405180910390fd5b6105ab816105b6565b50565b600033905090565b60008060009054906101000a900473ffffffffffffffffffffffffffffffffffffffff169050816000806101000a81548173ffffffffffffffffffffffffffffffffffffffff021916908373ffffffffffffffffffffffffffffffffffffffff1602179055508173ffffffffffffffffffffffffffffffffffffffff168173ffffffffffffffffffffffffffffffffffffffff167f8be0079c531659141344cd1fd0a4f28419497f9722a3daafe3b4186f6b6457e060405160405180910390a35050565b82805461068690610b66565b90600052602060002090601f0160209004810192826106a857600085556106ef565b82601f106106c157805160ff19168380011785556106ef565b828001600101855582156106ef579182015b828111156106ee5782518255916020019190600101906106d3565b5b5090506106fc9190610700565b5090565b5b80821115610719576000816000905550600101610701565b5090565b600061073061072b84610a9c565b610a6b565b90508281526020810184848401111561074857600080fd5b610753848285610b24565b509392505050565b60008135905061076a81610c7f565b92915050565b600082601f83011261078157600080fd5b813561079184826020860161071d565b91505092915050565b6000813590506107a981610c96565b92915050565b6000602082840312156107c157600080fd5b60006107cf8482850161075b565b91505092915050565b6000602082840312156107ea57600080fd5b60006107f88482850161079a565b91505092915050565b6000806000806080858703121561081757600080fd5b60006108258782880161079a565b94505060206108368782880161079a565b93505060406108478782880161079a565b925050606085013567ffffffffffffffff81111561086457600080fd5b61087087828801610770565b91505092959194509250565b61088581610ae8565b82525050565b600061089682610acc565b6108a08185610ad7565b93506108b0818560208601610b33565b6108b981610c6e565b840191505092915050565b60006108d1602683610ad7565b91507f4f776e61626c653a206e6577206f776e657220697320746865207a65726f206160008301527f64647265737300000000000000000000000000000000000000000000000000006020830152604082019050919050565b6000610937602083610ad7565b91507f4f776e61626c653a2063616c6c6572206973206e6f7420746865206f776e65726000830152602082019050919050565b61097381610b1a565b82525050565b600060208201905061098e600083018461087c565b92915050565b600060208201905081810360008301526109ae818461088b565b905092915050565b600060208201905081810360008301526109cf816108c4565b9050919050565b600060208201905081810360008301526109ef8161092a565b9050919050565b6000602082019050610a0b600083018461096a565b92915050565b600060a082019050610a26600083018861096a565b610a33602083018761096a565b610a40604083018661096a565b610a4d606083018561096a565b8181036080830152610a5f818461088b565b90509695505050505050565b6000604051905081810181811067ffffffffffffffff82111715610a9257610a91610c3f565b5b8060405250919050565b600067ffffffffffffffff821115610ab757610ab6610c3f565b5b601f19601f8301169050602081019050919050565b600081519050919050565b600082825260208201905092915050565b6000610af382610afa565b9050919050565b600073ffffffffffffffffffffffffffffffffffffffff82169050919050565b6000819050919050565b82818337600083830152505050565b60005b83811015610b51578082015181840152602081019050610b36565b83811115610b60576000848401525b50505050565b60006002820490506001821680610b7e57607f821691505b60208210811415610b9257610b91610c10565b5b50919050565b6000610ba382610b1a565b91507fffffffffffffffffffffffffffffffffffffffffffffffffffffffffffffffff821415610bd657610bd5610be1565b5b600182019050919050565b7f4e487b7100000000000000000000000000000000000000000000000000000000600052601160045260246000fd5b7f4e487b7100000000000000000000000000000000000000000000000000000000600052602260045260246000fd5b7f4e487b7100000000000000000000000000000000000000000000000000000000600052604160045260246000fd5b6000601f19601f8301169050919050565b610c8881610ae8565b8114610c9357600080fd5b50565b610c9f81610b1a565b8114610caa57600080fd5b5056fea26469706673582212200b22c82a1a240a066cc37ee5cad7ed4d2b5c91a53feb46576bf9ef31692fa28f64736f6c63430008000033",
  "immutableReferences": {},
  "source": "// SPDX-License-Identifier: MIT\r\npragma solidity 0.8.0;\r\n\r\nimport '@openzeppelin/contracts/access/Ownable.sol';\r\n\r\ncontract DailyJournal is Ownable {\r\n  string public name = \"Gregg's Daily Journal\";\r\n  uint256 public entryCount = 0;\r\n  mapping(uint => Entry) public entries;\r\n\r\n  struct Entry {\r\n    uint256 id;\r\n    uint256 date;\r\n    uint256 startTime;\r\n    uint256 endTime;\r\n    string description;\r\n  }\r\n\r\n  event EntryCreated(uint256 id, uint256 date, uint256 startTime, uint256 endTime, string description);\r\n\r\n  constructor(uint256 _date, uint256 _startTime, uint256 _endTime, string memory _description) {\r\n    createEntry(_date, _startTime, _endTime, _description);\r\n  }\r\n\r\n  function createEntry(uint256 _date, uint256 _startTime, uint256 _endTime, string memory _description) public onlyOwner() {\r\n    entryCount++;\r\n    entries[entryCount] = Entry(entryCount, _date, _startTime, _endTime, _description);\r\n    emit EntryCreated(entryCount, _date, _startTime, _endTime, _description);\r\n  }\r\n\r\n}",
  "sourcePath": "C:\\Users\\Gregg\\OneDrive\\Projects\\Personal Projects\\Daily Journal\\src\\contracts\\DailyJournal.sol",
  "compiler": {
    "name": "solc",
    "version": "0.8.0+commit.c7dfd78e.Emscripten.clang"
  },
  "schemaVersion": "3.4.4",
  "updatedAt": "2022-02-08T21:07:49.836Z",
  "networkType": "ethereum",
  "devdoc": {
    "kind": "dev",
    "methods": {
      "owner()": {
        "details": "Returns the address of the current owner."
      },
      "renounceOwnership()": {
        "details": "Leaves the contract without owner. It will not be possible to call `onlyOwner` functions anymore. Can only be called by the current owner. NOTE: Renouncing ownership will leave the contract without an owner, thereby removing any functionality that is only available to the owner."
      },
      "transferOwnership(address)": {
        "details": "Transfers ownership of the contract to a new account (`newOwner`). Can only be called by the current owner."
      }
    },
    "version": 1
  },
  "userdoc": {
    "kind": "user",
    "methods": {},
    "version": 1
  }
}