{
  "contractName": "DailyJournal",
  "abi": [
    {
      "inputs": [
        {
          "internalType": "string",
          "name": "_day",
          "type": "string"
        },
        {
          "internalType": "string",
          "name": "_date",
          "type": "string"
        },
        {
          "internalType": "string",
          "name": "_breakfast",
          "type": "string"
        },
        {
          "internalType": "string",
          "name": "_lunch",
          "type": "string"
        },
        {
          "internalType": "string",
          "name": "_dinner",
          "type": "string"
        },
        {
          "internalType": "string",
          "name": "_meditation",
          "type": "string"
        },
        {
          "internalType": "string",
          "name": "_startTime",
          "type": "string"
        },
        {
          "internalType": "string",
          "name": "_endTime",
          "type": "string"
        },
        {
          "internalType": "string",
          "name": "_description",
          "type": "string"
        }
      ],
      "stateMutability": "nonpayable",
      "type": "constructor"
    },
    {
      "anonymous": false,
      "inputs": [
        {
          "indexed": false,
          "internalType": "uint256",
          "name": "id",
          "type": "uint256"
        },
        {
          "indexed": false,
          "internalType": "string",
          "name": "day",
          "type": "string"
        },
        {
          "indexed": false,
          "internalType": "string",
          "name": "date",
          "type": "string"
        },
        {
          "indexed": false,
          "internalType": "string",
          "name": "breakfast",
          "type": "string"
        },
        {
          "indexed": false,
          "internalType": "string",
          "name": "lunch",
          "type": "string"
        },
        {
          "indexed": false,
          "internalType": "string",
          "name": "dinner",
          "type": "string"
        },
        {
          "indexed": false,
          "internalType": "string",
          "name": "meditation",
          "type": "string"
        },
        {
          "indexed": false,
          "internalType": "string",
          "name": "startTime",
          "type": "string"
        },
        {
          "indexed": false,
          "internalType": "string",
          "name": "endTime",
          "type": "string"
        },
        {
          "indexed": false,
          "internalType": "string",
          "name": "description",
          "type": "string"
        }
      ],
      "name": "EntryCreated",
      "type": "event"
    },
    {
      "anonymous": false,
      "inputs": [
        {
          "indexed": true,
          "internalType": "address",
          "name": "previousOwner",
          "type": "address"
        },
        {
          "indexed": true,
          "internalType": "address",
          "name": "newOwner",
          "type": "address"
        }
      ],
      "name": "OwnershipTransferred",
      "type": "event"
    },
    {
      "inputs": [
        {
          "internalType": "uint256",
          "name": "",
          "type": "uint256"
        }
      ],
      "name": "entries",
      "outputs": [
        {
          "internalType": "uint256",
          "name": "id",
          "type": "uint256"
        },
        {
          "internalType": "string",
          "name": "day",
          "type": "string"
        },
        {
          "internalType": "string",
          "name": "date",
          "type": "string"
        },
        {
          "internalType": "string",
          "name": "breakfast",
          "type": "string"
        },
        {
          "internalType": "string",
          "name": "lunch",
          "type": "string"
        },
        {
          "internalType": "string",
          "name": "dinner",
          "type": "string"
        },
        {
          "internalType": "string",
          "name": "meditation",
          "type": "string"
        },
        {
          "components": [
            {
              "internalType": "string",
              "name": "startTime",
              "type": "string"
            },
            {
              "internalType": "string",
              "name": "endTime",
              "type": "string"
            },
            {
              "internalType": "string",
              "name": "description",
              "type": "string"
            }
          ],
          "internalType": "struct DailyJournal.Task",
          "name": "task",
          "type": "tuple"
        }
      ],
      "stateMutability": "view",
      "type": "function",
      "constant": true
    },
    {
      "inputs": [],
      "name": "entryCount",
      "outputs": [
        {
          "internalType": "uint256",
          "name": "",
          "type": "uint256"
        }
      ],
      "stateMutability": "view",
      "type": "function",
      "constant": true
    },
    {
      "inputs": [],
      "name": "name",
      "outputs": [
        {
          "internalType": "string",
          "name": "",
          "type": "string"
        }
      ],
      "stateMutability": "view",
      "type": "function",
      "constant": true
    },
    {
      "inputs": [],
      "name": "owner",
      "outputs": [
        {
          "internalType": "address",
          "name": "",
          "type": "address"
        }
      ],
      "stateMutability": "view",
      "type": "function",
      "constant": true
    },
    {
      "inputs": [],
      "name": "renounceOwnership",
      "outputs": [],
      "stateMutability": "nonpayable",
      "type": "function"
    },
    {
      "inputs": [
        {
          "internalType": "address",
          "name": "newOwner",
          "type": "address"
        }
      ],
      "name": "transferOwnership",
      "outputs": [],
      "stateMutability": "nonpayable",
      "type": "function"
    },
    {
      "inputs": [
        {
          "internalType": "string",
          "name": "_day",
          "type": "string"
        },
        {
          "internalType": "string",
          "name": "_date",
          "type": "string"
        },
        {
          "internalType": "string",
          "name": "_breakfast",
          "type": "string"
        },
        {
          "internalType": "string",
          "name": "_lunch",
          "type": "string"
        },
        {
          "internalType": "string",
          "name": "_dinner",
          "type": "string"
        },
        {
          "internalType": "string",
          "name": "_meditation",
          "type": "string"
        },
        {
          "internalType": "string",
          "name": "_startTime",
          "type": "string"
        },
        {
          "internalType": "string",
          "name": "_endTime",
          "type": "string"
        },
        {
          "internalType": "string",
          "name": "_description",
          "type": "string"
        }
      ],
      "name": "createEntry",
      "outputs": [],
      "stateMutability": "nonpayable",
      "type": "function"
    }
  ],
  "bytecode": "0x60806040526040518060400160405280601581526020017f47726567676073204461696c79204a6f75726e616c00000000000000000000008152506001908051906020019062000051929190620005cb565b5060006002553480156200006457600080fd5b50604051620027473803806200274783398181016040528101906200008a9190620006ed565b620000aa6200009e620000d260201b60201c565b620000da60201b60201c565b620000c38989898989898989896200019e60201b60201c565b50505050505050505062000e59565b600033905090565b60008060009054906101000a900473ffffffffffffffffffffffffffffffffffffffff169050816000806101000a81548173ffffffffffffffffffffffffffffffffffffffff021916908373ffffffffffffffffffffffffffffffffffffffff1602179055508173ffffffffffffffffffffffffffffffffffffffff168173ffffffffffffffffffffffffffffffffffffffff167f8be0079c531659141344cd1fd0a4f28419497f9722a3daafe3b4186f6b6457e060405160405180910390a35050565b620001ae620000d260201b60201c565b73ffffffffffffffffffffffffffffffffffffffff16620001d4620005a260201b60201c565b73ffffffffffffffffffffffffffffffffffffffff16146200022d576040517f08c379a0000000000000000000000000000000000000000000000000000000008152600401620002249062000b1f565b60405180910390fd5b600089511162000274576040517f08c379a00000000000000000000000000000000000000000000000000000000081526004016200026b9062000b63565b60405180910390fd5b6000885111620002bb576040517f08c379a0000000000000000000000000000000000000000000000000000000008152600401620002b29062000b41565b60405180910390fd5b600083511162000302576040517f08c379a0000000000000000000000000000000000000000000000000000000008152600401620002f99062000adb565b60405180910390fd5b600082511162000349576040517f08c379a0000000000000000000000000000000000000000000000000000000008152600401620003409062000afd565b60405180910390fd5b600081511162000390576040517f08c379a0000000000000000000000000000000000000000000000000000000008152600401620003879062000b41565b60405180910390fd5b60026000815480929190620003a59062000d6d565b91905055506000604051806060016040528085815260200184815260200183815250905060405180610100016040528060025481526020018b81526020018a81526020018981526020018881526020018781526020018681526020018281525060036000600254815260200190815260200160002060008201518160000155602082015181600101908051906020019062000442929190620005cb565b50604082015181600201908051906020019062000461929190620005cb565b50606082015181600301908051906020019062000480929190620005cb565b5060808201518160040190805190602001906200049f929190620005cb565b5060a0820151816005019080519060200190620004be929190620005cb565b5060c0820151816006019080519060200190620004dd929190620005cb565b5060e082015181600701600082015181600001908051906020019062000505929190620005cb565b50602082015181600101908051906020019062000524929190620005cb565b50604082015181600201908051906020019062000543929190620005cb565b5050509050507f40e1c1637d4995de6e54d4975795b4773831348abf927ffc1c1b03702d49b9c66002548b8b8b8b8b8b8b8b8b6040516200058e9a9998979695949392919062000b85565b60405180910390a150505050505050505050565b60008060009054906101000a900473ffffffffffffffffffffffffffffffffffffffff16905090565b828054620005d99062000d37565b90600052602060002090601f016020900481019282620005fd576000855562000649565b82601f106200061857805160ff191683800117855562000649565b8280016001018555821562000649579182015b82811115620006485782518255916020019190600101906200062b565b5b5090506200065891906200065c565b5090565b5b80821115620006775760008160009055506001016200065d565b5090565b6000620006926200068c8462000ca8565b62000c74565b905082815260208101848484011115620006ab57600080fd5b620006b884828562000d01565b509392505050565b600082601f830112620006d257600080fd5b8151620006e48482602086016200067b565b91505092915050565b60008060008060008060008060006101208a8c0312156200070d57600080fd5b60008a015167ffffffffffffffff8111156200072857600080fd5b620007368c828d01620006c0565b99505060208a015167ffffffffffffffff8111156200075457600080fd5b620007628c828d01620006c0565b98505060408a015167ffffffffffffffff8111156200078057600080fd5b6200078e8c828d01620006c0565b97505060608a015167ffffffffffffffff811115620007ac57600080fd5b620007ba8c828d01620006c0565b96505060808a015167ffffffffffffffff811115620007d857600080fd5b620007e68c828d01620006c0565b95505060a08a015167ffffffffffffffff8111156200080457600080fd5b620008128c828d01620006c0565b94505060c08a015167ffffffffffffffff8111156200083057600080fd5b6200083e8c828d01620006c0565b93505060e08a015167ffffffffffffffff8111156200085c57600080fd5b6200086a8c828d01620006c0565b9250506101008a015167ffffffffffffffff8111156200088957600080fd5b620008978c828d01620006c0565b9150509295985092959850929598565b6000620008b48262000cdb565b620008c0818562000ce6565b9350620008d281856020860162000d01565b620008dd8162000e48565b840191505092915050565b6000620008f760278362000ce6565b91507f4461696c794a6f75726e616c3a20737461727454696d6520697320656d70747960008301527f20737472696e67000000000000000000000000000000000000000000000000006020830152604082019050919050565b60006200095f60258362000ce6565b91507f4461696c794a6f75726e616c3a20656e6454696d6520697320656d707479207360008301527f7472696e670000000000000000000000000000000000000000000000000000006020830152604082019050919050565b6000620009c760208362000ce6565b91507f4f776e61626c653a2063616c6c6572206973206e6f7420746865206f776e65726000830152602082019050919050565b600062000a0960228362000ce6565b91507f4461696c794a6f75726e616c3a206461746520697320656d707479207374726960008301527f6e670000000000000000000000000000000000000000000000000000000000006020830152604082019050919050565b600062000a7160218362000ce6565b91507f4461696c794a6f75726e616c3a2064617920697320656d70747920737472696e60008301527f67000000000000000000000000000000000000000000000000000000000000006020830152604082019050919050565b62000ad58162000cf7565b82525050565b6000602082019050818103600083015262000af681620008e8565b9050919050565b6000602082019050818103600083015262000b188162000950565b9050919050565b6000602082019050818103600083015262000b3a81620009b8565b9050919050565b6000602082019050818103600083015262000b5c81620009fa565b9050919050565b6000602082019050818103600083015262000b7e8162000a62565b9050919050565b60006101408201905062000b9d600083018d62000aca565b818103602083015262000bb1818c620008a7565b9050818103604083015262000bc7818b620008a7565b9050818103606083015262000bdd818a620008a7565b9050818103608083015262000bf38189620008a7565b905081810360a083015262000c098188620008a7565b905081810360c083015262000c1f8187620008a7565b905081810360e083015262000c358186620008a7565b905081810361010083015262000c4c8185620008a7565b905081810361012083015262000c638184620008a7565b90509b9a5050505050505050505050565b6000604051905081810181811067ffffffffffffffff8211171562000c9e5762000c9d62000e19565b5b8060405250919050565b600067ffffffffffffffff82111562000cc65762000cc562000e19565b5b601f19601f8301169050602081019050919050565b600081519050919050565b600082825260208201905092915050565b6000819050919050565b60005b8381101562000d2157808201518184015260208101905062000d04565b8381111562000d31576000848401525b50505050565b6000600282049050600182168062000d5057607f821691505b6020821081141562000d675762000d6662000dea565b5b50919050565b600062000d7a8262000cf7565b91507fffffffffffffffffffffffffffffffffffffffffffffffffffffffffffffffff82141562000db05762000daf62000dbb565b5b600182019050919050565b7f4e487b7100000000000000000000000000000000000000000000000000000000600052601160045260246000fd5b7f4e487b7100000000000000000000000000000000000000000000000000000000600052602260045260246000fd5b7f4e487b7100000000000000000000000000000000000000000000000000000000600052604160045260246000fd5b6000601f19601f8301169050919050565b6118de8062000e696000396000f3fe608060405234801561001057600080fd5b506004361061007d5760003560e01c8063715018a61161005b578063715018a6146100da5780638da5cb5b146100e4578063b30906d414610102578063f2fde38b146101395761007d565b806306fdde03146100825780630cbb0f83146100a05780634ce91893146100be575b600080fd5b61008a610155565b60405161009791906113ce565b60405180910390f35b6100a86101e3565b6040516100b591906114b0565b60405180910390f35b6100d860048036038101906100d39190610ec0565b6101e9565b005b6100e26105b5565b005b6100ec61063d565b6040516100f991906113b3565b60405180910390f35b61011c6004803603810190610117919061105e565b610666565b6040516101309897969594939291906115a6565b60405180910390f35b610153600480360381019061014e9190610e97565b610b9e565b005b6001805461016290611761565b80601f016020809104026020016040519081016040528092919081815260200182805461018e90611761565b80156101db5780601f106101b0576101008083540402835291602001916101db565b820191906000526020600020905b8154815290600101906020018083116101be57829003601f168201915b505050505081565b60025481565b6101f1610c96565b73ffffffffffffffffffffffffffffffffffffffff1661020f61063d565b73ffffffffffffffffffffffffffffffffffffffff1614610265576040517f08c379a000000000000000000000000000000000000000000000000000000000815260040161025c90611450565b60405180910390fd5b60008951116102a9576040517f08c379a00000000000000000000000000000000000000000000000000000000081526004016102a090611490565b60405180910390fd5b60008851116102ed576040517f08c379a00000000000000000000000000000000000000000000000000000000081526004016102e490611470565b60405180910390fd5b6000835111610331576040517f08c379a0000000000000000000000000000000000000000000000000000000008152600401610328906113f0565b60405180910390fd5b6000825111610375576040517f08c379a000000000000000000000000000000000000000000000000000000000815260040161036c90611430565b60405180910390fd5b60008151116103b9576040517f08c379a00000000000000000000000000000000000000000000000000000000081526004016103b090611470565b60405180910390fd5b600260008154809291906103cc90611793565b91905055506000604051806060016040528085815260200184815260200183815250905060405180610100016040528060025481526020018b81526020018a815260200189815260200188815260200187815260200186815260200182815250600360006002548152602001908152602001600020600082015181600001556020820151816001019080519060200190610467929190610d62565b506040820151816002019080519060200190610484929190610d62565b5060608201518160030190805190602001906104a1929190610d62565b5060808201518160040190805190602001906104be929190610d62565b5060a08201518160050190805190602001906104db929190610d62565b5060c08201518160060190805190602001906104f8929190610d62565b5060e082015181600701600082015181600001908051906020019061051e929190610d62565b50602082015181600101908051906020019061053b929190610d62565b506040820151816002019080519060200190610558929190610d62565b5050509050507f40e1c1637d4995de6e54d4975795b4773831348abf927ffc1c1b03702d49b9c66002548b8b8b8b8b8b8b8b8b6040516105a19a999897969594939291906114cb565b60405180910390a150505050505050505050565b6105bd610c96565b73ffffffffffffffffffffffffffffffffffffffff166105db61063d565b73ffffffffffffffffffffffffffffffffffffffff1614610631576040517f08c379a000000000000000000000000000000000000000000000000000000000815260040161062890611450565b60405180910390fd5b61063b6000610c9e565b565b60008060009054906101000a900473ffffffffffffffffffffffffffffffffffffffff16905090565b600360205280600052604060002060009150905080600001549080600101805461068f90611761565b80601f01602080910402602001604051908101604052809291908181526020018280546106bb90611761565b80156107085780601f106106dd57610100808354040283529160200191610708565b820191906000526020600020905b8154815290600101906020018083116106eb57829003601f168201915b50505050509080600201805461071d90611761565b80601f016020809104026020016040519081016040528092919081815260200182805461074990611761565b80156107965780601f1061076b57610100808354040283529160200191610796565b820191906000526020600020905b81548152906001019060200180831161077957829003601f168201915b5050505050908060030180546107ab90611761565b80601f01602080910402602001604051908101604052809291908181526020018280546107d790611761565b80156108245780601f106107f957610100808354040283529160200191610824565b820191906000526020600020905b81548152906001019060200180831161080757829003601f168201915b50505050509080600401805461083990611761565b80601f016020809104026020016040519081016040528092919081815260200182805461086590611761565b80156108b25780601f10610887576101008083540402835291602001916108b2565b820191906000526020600020905b81548152906001019060200180831161089557829003601f168201915b5050505050908060050180546108c790611761565b80601f01602080910402602001604051908101604052809291908181526020018280546108f390611761565b80156109405780601f1061091557610100808354040283529160200191610940565b820191906000526020600020905b81548152906001019060200180831161092357829003601f168201915b50505050509080600601805461095590611761565b80601f016020809104026020016040519081016040528092919081815260200182805461098190611761565b80156109ce5780601f106109a3576101008083540402835291602001916109ce565b820191906000526020600020905b8154815290600101906020018083116109b157829003601f168201915b505050505090806007016040518060600160405290816000820180546109f390611761565b80601f0160208091040260200160405190810160405280929190818152602001828054610a1f90611761565b8015610a6c5780601f10610a4157610100808354040283529160200191610a6c565b820191906000526020600020905b815481529060010190602001808311610a4f57829003601f168201915b50505050508152602001600182018054610a8590611761565b80601f0160208091040260200160405190810160405280929190818152602001828054610ab190611761565b8015610afe5780601f10610ad357610100808354040283529160200191610afe565b820191906000526020600020905b815481529060010190602001808311610ae157829003601f168201915b50505050508152602001600282018054610b1790611761565b80601f0160208091040260200160405190810160405280929190818152602001828054610b4390611761565b8015610b905780601f10610b6557610100808354040283529160200191610b90565b820191906000526020600020905b815481529060010190602001808311610b7357829003601f168201915b505050505081525050905088565b610ba6610c96565b73ffffffffffffffffffffffffffffffffffffffff16610bc461063d565b73ffffffffffffffffffffffffffffffffffffffff1614610c1a576040517f08c379a0000000000000000000000000000000000000000000000000000000008152600401610c1190611450565b60405180910390fd5b600073ffffffffffffffffffffffffffffffffffffffff168173ffffffffffffffffffffffffffffffffffffffff161415610c8a576040517f08c379a0000000000000000000000000000000000000000000000000000000008152600401610c8190611410565b60405180910390fd5b610c9381610c9e565b50565b600033905090565b60008060009054906101000a900473ffffffffffffffffffffffffffffffffffffffff169050816000806101000a81548173ffffffffffffffffffffffffffffffffffffffff021916908373ffffffffffffffffffffffffffffffffffffffff1602179055508173ffffffffffffffffffffffffffffffffffffffff168173ffffffffffffffffffffffffffffffffffffffff167f8be0079c531659141344cd1fd0a4f28419497f9722a3daafe3b4186f6b6457e060405160405180910390a35050565b828054610d6e90611761565b90600052602060002090601f016020900481019282610d905760008555610dd7565b82601f10610da957805160ff1916838001178555610dd7565b82800160010185558215610dd7579182015b82811115610dd6578251825591602001919060010190610dbb565b5b509050610de49190610de8565b5090565b5b80821115610e01576000816000905550600101610de9565b5090565b6000610e18610e1384611686565b611655565b905082815260208101848484011115610e3057600080fd5b610e3b84828561171f565b509392505050565b600081359050610e528161187a565b92915050565b600082601f830112610e6957600080fd5b8135610e79848260208601610e05565b91505092915050565b600081359050610e9181611891565b92915050565b600060208284031215610ea957600080fd5b6000610eb784828501610e43565b91505092915050565b60008060008060008060008060006101208a8c031215610edf57600080fd5b60008a013567ffffffffffffffff811115610ef957600080fd5b610f058c828d01610e58565b99505060208a013567ffffffffffffffff811115610f2257600080fd5b610f2e8c828d01610e58565b98505060408a013567ffffffffffffffff811115610f4b57600080fd5b610f578c828d01610e58565b97505060608a013567ffffffffffffffff811115610f7457600080fd5b610f808c828d01610e58565b96505060808a013567ffffffffffffffff811115610f9d57600080fd5b610fa98c828d01610e58565b95505060a08a013567ffffffffffffffff811115610fc657600080fd5b610fd28c828d01610e58565b94505060c08a013567ffffffffffffffff811115610fef57600080fd5b610ffb8c828d01610e58565b93505060e08a013567ffffffffffffffff81111561101857600080fd5b6110248c828d01610e58565b9250506101008a013567ffffffffffffffff81111561104257600080fd5b61104e8c828d01610e58565b9150509295985092959850929598565b60006020828403121561107057600080fd5b600061107e84828501610e82565b91505092915050565b611090816116e3565b82525050565b60006110a1826116b6565b6110ab81856116c1565b93506110bb81856020860161172e565b6110c481611869565b840191505092915050565b60006110da826116b6565b6110e481856116d2565b93506110f481856020860161172e565b6110fd81611869565b840191505092915050565b60006111156027836116d2565b91507f4461696c794a6f75726e616c3a20737461727454696d6520697320656d70747960008301527f20737472696e67000000000000000000000000000000000000000000000000006020830152604082019050919050565b600061117b6026836116d2565b91507f4f776e61626c653a206e6577206f776e657220697320746865207a65726f206160008301527f64647265737300000000000000000000000000000000000000000000000000006020830152604082019050919050565b60006111e16025836116d2565b91507f4461696c794a6f75726e616c3a20656e6454696d6520697320656d707479207360008301527f7472696e670000000000000000000000000000000000000000000000000000006020830152604082019050919050565b60006112476020836116d2565b91507f4f776e61626c653a2063616c6c6572206973206e6f7420746865206f776e65726000830152602082019050919050565b60006112876022836116d2565b91507f4461696c794a6f75726e616c3a206461746520697320656d707479207374726960008301527f6e670000000000000000000000000000000000000000000000000000000000006020830152604082019050919050565b60006112ed6021836116d2565b91507f4461696c794a6f75726e616c3a2064617920697320656d70747920737472696e60008301527f67000000000000000000000000000000000000000000000000000000000000006020830152604082019050919050565b600060608301600083015184820360008601526113638282611096565b9150506020830151848203602086015261137d8282611096565b915050604083015184820360408601526113978282611096565b9150508091505092915050565b6113ad81611715565b82525050565b60006020820190506113c86000830184611087565b92915050565b600060208201905081810360008301526113e881846110cf565b905092915050565b6000602082019050818103600083015261140981611108565b9050919050565b600060208201905081810360008301526114298161116e565b9050919050565b60006020820190508181036000830152611449816111d4565b9050919050565b600060208201905081810360008301526114698161123a565b9050919050565b600060208201905081810360008301526114898161127a565b9050919050565b600060208201905081810360008301526114a9816112e0565b9050919050565b60006020820190506114c560008301846113a4565b92915050565b6000610140820190506114e1600083018d6113a4565b81810360208301526114f3818c6110cf565b90508181036040830152611507818b6110cf565b9050818103606083015261151b818a6110cf565b9050818103608083015261152f81896110cf565b905081810360a083015261154381886110cf565b905081810360c083015261155781876110cf565b905081810360e083015261156b81866110cf565b905081810361010083015261158081856110cf565b905081810361012083015261159581846110cf565b90509b9a5050505050505050505050565b6000610100820190506115bc600083018b6113a4565b81810360208301526115ce818a6110cf565b905081810360408301526115e281896110cf565b905081810360608301526115f681886110cf565b9050818103608083015261160a81876110cf565b905081810360a083015261161e81866110cf565b905081810360c083015261163281856110cf565b905081810360e08301526116468184611346565b90509998505050505050505050565b6000604051905081810181811067ffffffffffffffff8211171561167c5761167b61183a565b5b8060405250919050565b600067ffffffffffffffff8211156116a1576116a061183a565b5b601f19601f8301169050602081019050919050565b600081519050919050565b600082825260208201905092915050565b600082825260208201905092915050565b60006116ee826116f5565b9050919050565b600073ffffffffffffffffffffffffffffffffffffffff82169050919050565b6000819050919050565b82818337600083830152505050565b60005b8381101561174c578082015181840152602081019050611731565b8381111561175b576000848401525b50505050565b6000600282049050600182168061177957607f821691505b6020821081141561178d5761178c61180b565b5b50919050565b600061179e82611715565b91507fffffffffffffffffffffffffffffffffffffffffffffffffffffffffffffffff8214156117d1576117d06117dc565b5b600182019050919050565b7f4e487b7100000000000000000000000000000000000000000000000000000000600052601160045260246000fd5b7f4e487b7100000000000000000000000000000000000000000000000000000000600052602260045260246000fd5b7f4e487b7100000000000000000000000000000000000000000000000000000000600052604160045260246000fd5b6000601f19601f8301169050919050565b611883816116e3565b811461188e57600080fd5b50565b61189a81611715565b81146118a557600080fd5b5056fea2646970667358221220295a5e25abb349fb307290119bc211487a8e37405748b352d927007fab52d25564736f6c63430008000033",
  "immutableReferences": {},
  "source": "// SPDX-License-Identifier: MIT\r\npragma solidity 0.8.0;\r\n\r\nimport '@openzeppelin/contracts/access/Ownable.sol';\r\n\r\ncontract DailyJournal is Ownable {\r\n  string public name = \"Gregg`s Daily Journal\";\r\n  uint256 public entryCount = 0;\r\n  mapping(uint => Entry) public entries;\r\n\r\n  struct Task {\r\n    string startTime;\r\n    string endTime;\r\n    string description;\r\n  }\r\n\r\n  struct Entry {\r\n    uint256 id;\r\n    string day;\r\n    string date;\r\n    string breakfast;\r\n    string lunch;\r\n    string dinner;\r\n    string meditation;\r\n    Task task;\r\n  }\r\n\r\n  event EntryCreated(\r\n    uint256 id, \r\n    string day,\r\n    string date, \r\n    string breakfast,\r\n    string lunch,\r\n    string dinner,\r\n    string meditation,\r\n    string startTime,\r\n    string endTime,\r\n    string description\r\n  );\r\n\r\n  constructor(\r\n    string memory _day,\r\n    string memory _date, \r\n    string memory _breakfast,\r\n    string memory _lunch,\r\n    string memory _dinner,\r\n    string memory _meditation,\r\n    string memory _startTime,\r\n    string memory _endTime,\r\n    string memory _description\r\n  ) {\r\n    createEntry(_day, _date, _breakfast, _lunch, _dinner, _meditation, _startTime, _endTime, _description);\r\n  }\r\n\r\n  function createEntry(\r\n    string memory _day,\r\n    string memory _date, \r\n    string memory _breakfast,\r\n    string memory _lunch,\r\n    string memory _dinner,\r\n    string memory _meditation,\r\n    string memory _startTime,\r\n    string memory _endTime,\r\n    string memory _description\r\n  ) public onlyOwner() {\r\n\r\n    require(bytes(_day).length > 0, 'DailyJournal: day is empty string');\r\n    require(bytes(_date).length > 0, 'DailyJournal: date is empty string');\r\n    require(bytes(_startTime).length > 0, 'DailyJournal: startTime is empty string');\r\n    require(bytes(_endTime).length > 0, 'DailyJournal: endTime is empty string');\r\n    require(bytes(_description).length > 0, 'DailyJournal: date is empty string');\r\n\r\n    entryCount++;\r\n    \r\n    Task memory _task = Task(_startTime, _endTime, _description);\r\n\r\n    entries[entryCount] = Entry(entryCount, _day, _date, _breakfast, _lunch, _dinner, _meditation, _task);\r\n\r\n    emit EntryCreated(entryCount, _day, _date, _breakfast, _lunch, _dinner, _meditation, _startTime, _endTime, _description);\r\n  }\r\n\r\n}",
  "sourcePath": "C:\\Users\\Gregg\\OneDrive\\Projects\\Personal Projects\\Daily Journal\\src\\contracts\\DailyJournal.sol",
  "compiler": {
    "name": "solc",
    "version": "0.8.0+commit.c7dfd78e.Emscripten.clang"
  },
  "schemaVersion": "3.4.4",
  "updatedAt": "2022-02-10T01:36:02.373Z",
  "networkType": "ethereum",
  "devdoc": {
    "kind": "dev",
    "methods": {
      "owner()": {
        "details": "Returns the address of the current owner."
      },
      "renounceOwnership()": {
        "details": "Leaves the contract without owner. It will not be possible to call `onlyOwner` functions anymore. Can only be called by the current owner. NOTE: Renouncing ownership will leave the contract without an owner, thereby removing any functionality that is only available to the owner."
      },
      "transferOwnership(address)": {
        "details": "Transfers ownership of the contract to a new account (`newOwner`). Can only be called by the current owner."
      }
    },
    "version": 1
  },
  "userdoc": {
    "kind": "user",
    "methods": {},
    "version": 1
  }
}